:100000000C949D000C94AF000C94AF000C94AF00C6
:100010000C94AF000C94AF000C94AF000C94AF00A4
:100020000C94AF000C94AF000C94AF000C94AF0094
:100030000C94AF000C94AF000C94E0030C94AF0050
:100040000C94AF000C94AF000C94AF000C94AF0074
:100050000C94AF000C94AF000C94AF000C94AF0064
:100060000C9405040C94AF002004420442044204A2
:100070004204420442044204200442044204420472
:100080004204420442044204200442044204420462
:100090004204420442044204200442044204420452
:1000A000420442044204420424044204420442043E
:1000B0004204420442044204420442044204420410
:1000C000420442044204420424044204420442041E
:1000D00042044204420442044204420442044204F0
:1000E00042044204420442042C04420442044204F6
:1000F00042044204420442043004420442044204E2
:1001000042044204420442043004420442044204D1
:1001100042044204420442043004420442044204C1
:10012000420442044204420442044204420442049F
:100130004204420442044204300411241FBECFEFA3
:10014000D8E0DEBFCDBF21E0A0E0B1E001C01D924C
:10015000AD32B207E1F70E9497030C9478040C9437
:1001600000002FB7F8946091290170912A018091C5
:100170002B0190912C012FBF0895DC01CB01821B34
:10018000930BA40BB50B80959095A095B0958827FF
:10019000B7FD83959927AA27BB270895EF92FF9271
:1001A0000F931F93DC01CB01821B930BA40BB50BA8
:1001B00021E08E159F05A007B10708F420E0822FEB
:1001C0001F910F91FF90EF90089582E084BD93E01E
:1001D00095BD99EF97BD80936E0008958AB1806FA9
:1001E0008AB98BB18F708BB984B1816084B984B1C5
:1001F000897F84B985B18E7F85B985B1846085B9E1
:1002000087B18F7C87B988B1806388B90895FC0174
:100210006083618322833383448355830895DF920F
:10022000EF92FF920F931F93CF93DF93FC01A62FC2
:100230008181861729F06183228333834483558328
:100240008081A81799F0CA01B901DA2EEF01228145
:100250003381448155811EE1E12EF12C00E010E054
:100260000E94CE00882319F0D88201C080E0DF917F
:10027000CF911F910F91FF90EF90DF90089583B180
:100280008695869591E08927817008958BB18F704E
:100290008BB90895CF93C82F0E9446018C2F83708D
:1002A000813041F018F0823049F00CC08BB1806190
:1002B0008BB90BC08BB180628BB907C08BB18064E6
:1002C0008BB903C08BB180688BB9CF910895209111
:1002D0001F01211116C021E020931F0120E034E00E
:1002E00030931D0120931C01609318017093190134
:1002F00080931A0190931B01809113018F5F80936B
:1003000013010895CF92DF92EF92FF92CF93C091A5
:100310001F01CC2309F47BC06B017C01C230F9F4CE
:10032000209114013091150140911601509117014F
:100330000E94BD00882309F46AC083E080931F01F6
:1003400080E094E090931D0180931C01C0921801FD
:10035000D0921901E0921A01F0921B0158C020912D
:1003600018013091190140911A0150911B010E940E
:10037000BD00882309F44BC0D701C6010396A11D17
:10038000B11D8093180190931901A0931A01B093A5
:100390001B01C13039F480911E018F5F83708093FF
:1003A0001E0106C080911E018D5F837080931E0127
:1003B00080911E010E944A0180911C0190911D01B3
:1003C000009729F0019790931D0180931C01809163
:1003D0001C0190911D01892BD1F480911F01813066
:1003E00091F482E080931F0188EBC80E8BE0D81E49
:1003F000E11CF11CC0921401D0921501E09216018B
:10040000F092170104C010921F010E944601CF9183
:10041000FF90EF90DF90CF90089510921F011092FF
:100420001D0110921C010E944601089583E08093F3
:10043000B9008CE08093B80086E28093BA0085EC26
:100440008093BC00089580910D0190910E01A091C0
:100450000F01B091100120911301E1E2F1E020833E
:1004600020911F0121834B2F552766277727428331
:10047000AD01662777274383492F5A2F6B2F7727A4
:100480004483858380911201868380911101878343
:100490000895CF93DF93EC0185B18E7F85B92AE073
:1004A0002A95F1F700C085B1816085B985E38A9509
:1004B000F1F7000085B18E7F85B980E395E7A0E074
:1004C000B0E007C025E02A95F1F700000197A109E7
:1004D000B109199904C00097A105B10599F7892BB5
:1004E0008A2B8B2B81F180E090E0DC0107C025E0B6
:1004F0002A95F1F700000196A11DB11D199B06C0B8
:10050000803325E79207A105B10588F3AC01BD0151
:1005100041505109610971094F3255476105710513
:10052000A0F4BC01CD01635E7F4F8F4F9F4F2AE344
:1005300030E040E050E00E945004288339834A8331
:100540005B8381E003C080E001C080E0DF91CF9158
:1005500008958F929F92AF92BF92DF92EF92FF9297
:100560000F931F93CF93DF9300D000D0CDB7DEB7AA
:100570004B015C012091090130910A0140910B016E
:1005800050910C0118ECE12EF12C00E010E00E94DB
:10059000CE00882309F4BBC08092090190920A0121
:1005A000A0920B01B0920C01CE0101960E9449026B
:1005B000882319F0DD24D39401C0D12CD11007C0B9
:1005C0008FEF9FEFDC0189839A83AB83BC83DD20AF
:1005D00079F089819A81AB81BC81181619061A06B7
:1005E0001B0644F40B97A105B10534F080E005C06B
:1005F00080E003C080E001C081E0882309F444C0AA
:100600008091080181110BC081E0809308018092E4
:10061000040190920501A0920601B0920701809218
:10062000000190920101A0920201B0920301209179
:100630000401309105014091060150910701D50157
:10064000C401821B930BA40BB50B80930D019093F7
:100650000E01A0930F01B09310018091110181113F
:1006600056C018EBE12E1BE0F12E00E010E0C501B2
:10067000B4010E94CE00882309F449C081E0809330
:1006800011010E940D0243C080910801882349F1A5
:10069000209100013091010140910201509103012C
:1006A00014EFE12EFF24F39400E010E0C501B40143
:1006B0000E94CE00811115C0809104019091050126
:1006C000A0910601B0910701881A990AAA0ABB0AEB
:1006D00080920D0190920E01A0920F01B092100134
:1006E0000AC01092080110920D0110920E01109292
:1006F0000F0110921001DD2051F089819A81AB81A8
:10070000BC810F97A105B10514F0109211010F9053
:100710000F900F900F90DF91CF911F910F91FF904D
:10072000EF90DF90BF90AF909F908F900895CF9300
:10073000DF9300D000D000D0CDB7DEB7F8940E9490
:10074000EE000E94E5000E94160278940E94B1001B
:100750006B017C010E943F01A7019601682FCE0129
:1007600001960E9407010E94B1006B017C010E946A
:100770003F018093120180911101811112C00E94EA
:100780003F01A7019601682FCE0101960E940F013B
:10079000882339F08981882321F0C701B6010E949E
:1007A0006701C701B6010E94A90280911101811160
:1007B00004C0C701B6010E9482010E942302D3CF68
:1007C0001F920F920FB60F9211248F939F93AF93A6
:1007D000BF938091290190912A01A0912B01B091A2
:1007E0002C010196A11DB11D8093290190932A012E
:1007F000A0932B01B0932C01BF91AF919F918F914A
:100800000F900FBE0F901F9018951F920F920FB66A
:100810000F9211248F939F93AF93BF93EF93FF9306
:100820008091B900E82FE87F8E2F90E0FC01E05620
:10083000F109E936F10530F5EC5CFF4F0C947204D8
:1008400085EC8093BC0021C08091BB008093200187
:1008500085EC8093BC0019C085EC8093BC0015C06A
:10086000E0912001E770F0E0EF5DFE4F8081809322
:10087000BB00809120018F5F8093200185EC8093E5
:10088000BC0003C085EC8093BC00FF91EF91BF9149
:10089000AF919F918F910F900FBE0F901F90189561
:1008A000A1E21A2EAA1BBB1BFD010DC0AA1FBB1F74
:1008B000EE1FFF1FA217B307E407F50720F0A21BE6
:1008C000B30BE40BF50B661F771F881F991F1A9453
:1008D00069F760957095809590959B01AC01BD017D
:1008E000CF010895EE0FFF1F0590F491E02D0994BC
:0408F000F894FFCFAA
:00000001FF
