:100000000C949D000C94BA000C94BA000C94BA00A5
:100010000C94BA000C94BA000C94BA000C94BA0078
:100020000C94BA000C94BA000C94BA000C94BA0068
:100030000C94BA000C94BA000C94D3020C94BA003D
:100040000C94BA000C94BA000C94BA000C94BA0048
:100050000C94BA000C94BA000C94BA000C94BA0038
:100060000C94F8020C94BA001303400340034003BD
:100070004003400340034003130340034003400395
:100080004003400340034003130340034003400385
:100090004003400340034003130340034003400375
:1000A0004003400340034003170340034003400361
:1000B0004003400340034003400340034003400328
:1000C0004003400340034003170340034003400341
:1000D0004003400340034003400340034003400308
:1000E00040034003400340031F0340034003400319
:1000F0004003400340034003230340034003400305
:1001000040034003400340032303400340034003F4
:1001100040034003400340032303400340034003E4
:1001200040034003400340034003400340034003B7
:100130004003400340034003230311241FBECFEFBD
:10014000D8E0DEBFCDBF11E0A0E0B1E0E6E2F7E02D
:1001500002C005900D92A230B107D9F721E0A2E0CC
:10016000B1E001C01D92A232B207E1F70E944E0336
:100170000C9491030C9400002FB7F89460911E0129
:1001800070911F0180912001909121012FBF08954E
:10019000DC01CB01821B930BA40BB50B80959095D2
:1001A000A095B0958827B7FD83959927AA27BB27E7
:1001B0000895EF92FF920F931F93DC01CB01821BF6
:1001C000930BA40BB50B21E08E159F05A007B1077B
:1001D00008F420E0822F1F910F91FF90EF90089577
:1001E00082E084BD93E095BD99EF97BD80936E004A
:1001F00008958AB1806F8AB98BB18F708BB984B141
:100200008A7F84B984B1826084B985B18D7F85B9D4
:1002100085B1846085B987B18F7C87B988B18063E7
:1002200088B90895FC01608361832283338344830A
:1002300055830895DF92EF92FF920F931F93CF9310
:10024000DF93FC01A62F8181861729F06183228329
:100250003383448355838081A81799F0CA01B9017B
:10026000DA2EEF0122813381448155811EE1E12E96
:10027000F12C00E010E00E94D900882319F0D88208
:1002800001C080E0DF91CF911F910F91FF90EF901F
:10029000DF90089583B18695869591E089278170D6
:1002A00008958BB18F708BB90895CF93C82F0E949A
:1002B00051018C2F8370813041F018F0823049F069
:1002C0000CC08BB180618BB90BC08BB180628BB9D4
:1002D00007C08BB180648BB903C08BB180688BB9C8
:1002E000CF91089520911601211116C021E020938D
:1002F000160120E034E03093140120931301609341
:100300000F0170931001809311019093120180915D
:100310000A018F5F80930A010895CF92DF92EF92D6
:10032000FF92CF93C0911601CC2309F47BC06B01DF
:100330007C01C230F9F420910B0130910C01409105
:100340000D0150910E010E94C800882309F46AC073
:1003500083E08093160180E094E0909314018093F1
:100360001301C0920F01D0921001E0921101F0929E
:10037000120158C020910F013091100140911101DC
:10038000509112010E94C800882309F44BC0D70184
:10039000C6010396A11DB11D80930F01909310011A
:1003A000A0931101B0931201C13039F4809115016D
:1003B0008F5F83708093150106C0809115018D5F5A
:1003C000837080931501809115010E9455018091E1
:1003D000130190911401009729F001979093140153
:1003E000809313018091130190911401892BD1F412
:1003F00080911601813091F482E08093160188EBA0
:10040000C80E8BE0D81EE11CF11CC0920B01D092EB
:100410000C01E0920D01F0920E0104C01092160141
:100420000E945101CF91FF90EF90DF90CF900895FF
:1004300093B181E089278170089583E08093B900AA
:100440008CE08093B80086E28093BA0085EC8093BC
:10045000BC00089520910601822F90910701A09180
:100460000801B091090130910A01E8E1F1E030831F
:100470003091160131834B2F55276627772742830A
:10048000AD01662777274383892F9A2FAB2FBB2790
:100490008483258308952FB7F89490E040E050E0DE
:1004A000BA0115C085B1826085B985E08A95F1F7FA
:1004B0000000440F551F661F771F1899416085B1D2
:1004C0008D7F85B985E08A95F1F700009F5F9831AF
:1004D00048F385B1826085B985E08A95F1F700001F
:1004E00085B18D7F85B985E08A95F1F700002FBF32
:1004F00067FD7F6FCB01BA0108958F929F92AF92F3
:10050000BF92EF92FF920F931F934B015C012091DA
:10051000020130910301409104015091050118EC52
:10052000E12EF12C00E010E00E94D900882391F127
:100530008092020190920301A0920401B092050101
:100540000E941802882331F10E944B026093060139
:10055000709307018093080190930901633C21E0A7
:100560007207810591051CF421E020930001209180
:100570000001222379F0643F71408105910554F018
:1005800080911601811106C010920001C501B401CD
:100590000E9472011F910F91FF90EF90BF90AF905A
:1005A0009F908F9008951F920F920FB60F92112473
:1005B0008F939F93AF93BF9380911E0190911F01E2
:1005C000A0912001B09121010196A11DB11D809340
:1005D0001E0190931F01A0932001B0932101BF91B0
:1005E000AF919F918F910F900FBE0F901F90189514
:1005F0001F920F920FB60F9211248F939F93AF9378
:10060000BF93EF93FF938091B900E82FE87F8E2F7F
:1006100090E0FC01E056F109E936F10588F5EC5C63
:10062000FF4F0C948B0385EC8093BC002CC0809111
:10063000BB008093170185EC8093BC0024C085EC3F
:100640008093BC0020C0E09117018BEAE89F812DC8
:10065000112486958695982F990F890F982F990FB9
:10066000E91BF0E0E85EFE4F80818093BB00809143
:1006700017018F5F8093170185EC8093BC0003C046
:1006800085EC8093BC00FF91EF91BF91AF919F915A
:100690008F910F900FBE0F901F901895CF93DF93FF
:1006A00000D000D000D0CDB7DEB7F8940E94F9009A
:1006B0000E94F0000E941D0278940E94BC006B0111
:1006C0007C010E944A01A7019601682FCE01019684
:1006D0000E9412010E94BC006B017C010E944A0131
:1006E000A7019601682FCE0101960E941A01882366
:1006F00039F08981882321F0C701B6010E94720177
:10070000C701B6010E947D02C701B6010E948D019A
:100710000E942A02DFCFEE0FFF1F0590F491E02D1B
:060720000994F894FFCFDC
:020726000100D0
:00000001FF
