:100000000C948D000C94AA000C94AA000C94AA00E5
:100010000C94AA000C94AA000C94AA000C94AA00B8
:100020000C94AA000C94AA000C94AA000C94AA00A8
:100030000C94AA000C94AA000C9436070C94AA0005
:100040000C94AA000C94AA000C94AA000C94AA0088
:100050000C94AA000C94AA000C94AA000C94AA0078
:100060000C945B070C94AA007607A007A007A007D2
:10007000A007A007A007A0077607A007A007A00772
:10008000A007A007A007A0077607A007A007A00762
:10009000A007A007A007A0077607A007A007A00752
:1000A000A007A007A007A0077A07A007A007A0073E
:1000B000A007A007A007A007A007A007A007A00708
:1000C000A007A007A007A0077A07A007A007A0071E
:1000D000A007A007A007A007A007A007A007A007E8
:1000E000A007A007A007A007A007A007A007A007D8
:1000F000A007A007A007A0078207A007A007A007E6
:10010000A007A007A007A0078207A007A007A007D5
:10011000A007A007A007A007820711241FBECFEFEA
:10012000D8E0DEBFCDBF12E0A0E0B1E0EEE0F1E14B
:1001300002C005900D92AC3EB107D9F723E0ACEEBA
:10014000B2E001C01D92AF31B207E1F70E94AE07E5
:100150000C9485080C9400002FB7F89460911B0351
:1001600070911C0380911D0390911E032FBF089571
:10017000DC01CB01821B930BA40BB50B80959095F2
:10018000A095B0958827B7FD83959927AA27BB2707
:100190000895EF92FF920F931F93DC01CB01821B16
:1001A000930BA40BB50B21E08E159F05A007B1079B
:1001B00008F420E0822F1F910F91FF90EF90089597
:1001C00082E084BD93E095BD99EF97BD80936E006A
:1001D00008951092C50087E68093C40088E080935C
:1001E000C10086E08093C20008959091C00095FF01
:1001F000FCCF8093C6000895CF93DF93EC0103C03A
:1002000021960E94F50088818111FACFDF91CF916C
:1002100008951F93CF93DF93CDB7DEB72B970FB61B
:10022000F894DEBF0FBECDBF611571058105910544
:10023000C1F480E30E94F50029C02AE030E040E0EC
:1002400050E00E944308605DE1E0F0E0EC0FFD1F2C
:10025000E10FF11D6083622F732F842F952F1F5F95
:1002600001C010E0611571058105910569F01B3031
:1002700020F30AC01150E1E0F0E0EC0FFD1FE10FA8
:10028000F11D80810E94F5001111F4CF2B960FB65D
:10029000F894DEBF0FBECDBFDF91CF911F910895BF
:1002A000CF92DF92EF92FF926B017C0199235CF475
:1002B0008DE20E94F50066277727CB016C197D0936
:1002C0008E099F0900C00E940901FF90EF90DF9006
:1002D000CF900895BC0180E090E00E94090108954C
:1002E00089B186958695869591E0892781700895D4
:1002F00089B18695869591E0892781700895882334
:1003000021F08BB180648BB908958BB18F7B8BB951
:1003100008958AB1837E8AB98BB18C608BB98AB11A
:10032000806E8AB98BB18F718BB984B1856084B9C5
:1003300085B18E7F85B985B1846085B90895FC014A
:100340006083618322833383448355830895DF92DE
:10035000EF92FF920F931F93CF93DF93FC01A62F91
:100360008181861729F061832283338344835583F7
:100370008081A81799F0CA01B901DA2EEF01228114
:100380003381448155811EE1E12EF12C00E010E023
:100390000E94C900882319F0D88201C080E0DF9153
:1003A000CF911F910F91FF90EF90DF90089584B14E
:1003B000826084B982E8809380008AE18093810022
:1003C0008FE39CE9909387008093860080ED97E00F
:1003D00090938900809388000895CF93C82F853B20
:1003E00008F0C4EB2C2F30E0A8EEB3E00E946B08BD
:1003F00024EB30E040E050E00E94430828513C4F9D
:10040000220F331F3093890020938800C093F90294
:10041000CF91089520910F03211115C0DC01CB016C
:1004200021E020930F03805F984DAF4FBF4F809323
:10043000080390930903A0930A03B0930B0381E090
:1004400091E00E94FC000895CF92DF92EF92FF921C
:10045000CF936B017C01C0910F03C13029F520912E
:1004600008033091090340910A0350910B030E9445
:10047000B8008823C9F08AE50E94ED0182E08093EC
:100480000F0388EEC80E83E0D81EE11CF11CC09259
:100490000803D0920903E0920A03F0920B038BE267
:1004A00091E00E94FC0019C0C230B9F42091080309
:1004B0003091090340910A0350910B03C701B60123
:1004C0000E94B800882349F080E00E94ED0110925C
:1004D0000F0380E491E00E94FC00CF91FF90EF9029
:1004E000DF90CF9008951092B90088E48093B8000F
:1004F00084E28093BA0085EC8093BC0008952FEFCE
:100500003FEF02C0215031098091BC0088231CF0CC
:1005100021153105B9F781E0232B09F480E0089516
:100520008091B900887F0895CF93C82F84EA809383
:10053000BC000E947F028823F9F00E94900288305C
:1005400011F08031C1F4C093BB0084E88093BC00FB
:100550000E947F02882381F00E949002982FC0FDA4
:1005600005C081E0983141F080E006C081E0903420
:1005700019F080E001C080E0CF9108958093BB0026
:1005800084E88093BC000E947F02982F882331F07A
:100590000E94900291E0883209F090E0892F08953E
:1005A0000F931F93CF93DF938C01D62F662321F0F7
:1005B00084EC8093BC0003C084E88093BC000E945C
:1005C0007F02C82F882399F0DD2329F00E94900232
:1005D000803551F404C00E949002883539F480912E
:1005E000BB00F801808303C0C0E001C0C0E08C2FD5
:1005F000DF91CF911F910F91089585ED8093BC00FD
:1006000008951F93CF93DF93D82F162F82E70E9470
:100610009402C82F882389F08D2F0E94BE02882360
:1006200031F0812F0E94BE02C82F811104C00E94A8
:10063000FD02C0E002C00E94FD028C2FDF91CF912D
:100640001F910895EF92FF920F931F93CF93DF9323
:1006500061157105B9F14423B9F1C42F7B01D82F7D
:1006600082E70E949402182F882379F18D2F0E942F
:10067000BE02182F811103C00E94FD0226C083E72D
:100680000E949402182F811117C00E94FD021DC004
:1006900061E08FEF8C0FD81708F060E0C7018D0F75
:1006A000911D0E94D002082F811104C00E94FD02FA
:1006B000102F0BC0DF5F01C0D0E0DC1748F30E94B1
:1006C000FD0203C010E001C010E0812FDF91CF9147
:1006D0001F910F91FF90EF90089541E00E94220337
:1006E0000895AF92BF92CF92DF92EF92FF920F9355
:1006F0001F93CF93DF93CDB7DEB729970FB6F8944A
:10070000DEBF0FBECDBF5C016B017A018901BE0166
:100710006F5F7F4F83E90E946D03882391F1898188
:1007200080FF2EC048E0BE016E5F7F4F84E90E94CB
:100730002203882331F19A812B8130E0322F222746
:10074000292BF501318320839C812D8130E0322FCC
:100750002227292BF601318320839E812F8130E0CF
:10076000322F2227292BF701318320839885298571
:1007700030E0322F2227292BF8013183208301C05A
:1007800080E029960FB6F894DEBF0FBECDBFDF9193
:10079000CF911F910F91FF90EF90DF90CF90BF907E
:1007A000AF9008954F925F926F927F928F929F9237
:1007B000AF92BF92CF92DF92EF92FF920F931F936F
:1007C000CF93DF93FB018A01E90186399105A0F1FE
:1007D0006B01E12CF12CA4E6B0E0A70196010E9488
:1007E0007A082B013C014E01A12CB12CADE7B0E001
:1007F000A50194010E947A08641575058605970580
:1008000018F40E171F07D0F0A4E6B0E0A50194017C
:100810000E947A084B015C01ADE7B0E0A7019601A8
:100820000E947A08681579058A059B0548F40C171B
:100830001D0740F080E007C080E005C081E003C0F4
:1008400080E001C082E0DF91CF911F910F91FF9076
:10085000EF90DF90CF90BF90AF909F908F907F9060
:100860006F905F904F900895882321F085B181604B
:1008700085B9089585B18E7F85B90895882321F0C3
:1008800085B18B7F85B9089585B1846085B9089558
:1008900090910E03911120C09FEF980F9230E0F4D9
:1008A00080930D0391E090930E0348575C4E6F4F79
:1008B0007F4F4093040350930503609306037093A6
:1008C0000703813029F48CE591E00E94FC00089533
:1008D00082E891E00E94FC000895CF92DF92EF92AF
:1008E000FF92CF93C82F862F69017A016093FA0295
:1008F0000E94340481E00E943E048BB18F778BB953
:100900001092FB021092FC021092FD021092FE0265
:100910001092FF028FEFC81AD80AE80AF80AC092AC
:100920000003D0920103E0920203F0920303C0930C
:100930000E03CF91FF90EF90DF90CF9008952BB1F1
:100940002F772BB91092FB0220910E032230B1F4C5
:1009500023E020930E03AB01BC0148515C4F6F4F65
:100960007F4F4093040350930503609306037093F5
:10097000070388EA91E00E94FC00089580E00E944D
:100980003E0410920E0310920D0385EC91E00E943C
:10099000FC0008958F929F92AF92BF92CF92DF9208
:1009A000EF92FF924B015C01C0900003D0900103D5
:1009B000E0900203F0900303A70196010E94B800A3
:1009C000882309F440C082E0C80ED11CE11CF11C50
:1009D000C0920003D0920103E0920203F09203035D
:1009E0008091FB028823B1F08BB18F778BB9109285
:1009F000FB028091FC029091FD02A091FE02B09159
:100A0000FF02C297A105B105F0F0C501B4010E9433
:100A10009F0419C08BB180688BB981E08093FB0281
:100A20008091FC029091FD02A091FE02B091FF0224
:100A30000196A11DB11D8093FC029093FD02A0932D
:100A4000FE02B093FF02FF90EF90DF90CF90BF9037
:100A5000AF909F908F900895CF92DF92EF92FF9288
:100A60006B017C0180910E03823039F118F48130E2
:100A700031F044C0833031F18430F9F03FC020912F
:100A80000403309105034091060350910703C70109
:100A9000B6010E94B800882389F161E080910D03BE
:100AA000813009F060E0A701960182E00E946D04A8
:100AB00082EE91E00E94FC0021C0C701B6010E94B5
:100AC000CA041CC020910403309105034091060321
:100AD00050910703C701B6010E94B800882371F046
:100AE00061E08091FA02811160E0A701960184E043
:100AF0000E946D0489E092E00E94FC00FF90EF905C
:100B0000DF90CF90089589B182958F7091E0892709
:100B1000817008958F929F92AF92BF92EF92FF9251
:100B20000F931F93CF93DF93CDB7DEB728970FB600
:100B3000F894DEBF0FBECDBF4B015C012091F102E6
:100B40003091F2024091F3025091F40216E9E12E45
:100B5000F12C00E010E00E94C900882309F46BC06A
:100B60008092F1029092F202A092F302B092F4020B
:100B70009E01295F3F4FAE014B5F5F4FBE016D5F2E
:100B80007F4FCE0101960E947103882309F453C060
:100B90002F8138854D815E816B817C8189819A812D
:100BA0000E94D203182F81110FC08091F002833070
:100BB00018F48F5F8093F0028091F0028330D8F1B7
:100BC00081E08093000137C01092F0028091000113
:100BD000882389F180910E0381112DC010920001AC
:100BE00010930C0383E292E00E94FC0089819A81B9
:100BF0000E946A018CE292E00E94FC008B819C8141
:100C00000E946A0180E392E00E94FC008D819E8137
:100C10000E946A0184E392E00E94FC008F81988523
:100C20000E946A018EEB92E00E94FC00B501A401D3
:100C3000812F0E94480428960FB6F894DEBF0FBE9D
:100C4000CDBFDF91CF911F910F91FF90EF90BF909B
:100C5000AF909F908F900895CF92DF92EF92FF9286
:100C60001F93CF93DF931091F502C12ED090F6021F
:100C7000E090F702F090F802C0E1D3E088830E9490
:100C80007801898380910F038A838091F9028B8395
:100C900080910C038C8380910E038D838F2D992777
:100CA000AA27BB278E83C701AA27BB278F83CD2CFA
:100CB000DE2CEF2CFF24C8861987DF91CF911F917E
:100CC000FF90EF90DF90CF900895CF93DF931F9226
:100CD000CDB7DEB7BE016F5F7F4F82E90E946D0323
:100CE000882369F188E392E00E94FC00898190E00A
:100CF0000E946A018EEB92E00E94FC0060E080E8B6
:100D00000E9401038823D9F06BED81E80E94010362
:100D10008823A9F061E08FE80E940103882379F01D
:100D200063E080E80E940103882349F02FEF3BED48
:100D300095E0215030409040E1F700C000000F9056
:100D4000DF91CF9108950E948305811109C03091F0
:100D5000F5022091F6028091F7029091F80237C0D7
:100D60002FB7F89490E040E050E0BA0119C08BB181
:100D700080628BB985E08A95F1F70000440F551F1A
:100D8000661F771F4C9B04C04F5F5F4F6F4F7F4FB5
:100D90008BB18F7D8BB985E08A95F1F700009F5F5D
:100DA000983128F38BB180628BB985E08A95F1F791
:100DB00000008BB18F7D8BB985E08A95F1F700003B
:100DC0002FBF67FD7F6F342F252F862F972F632F1F
:100DD000722F08958F929F92AF92BF92EF92FF92DF
:100DE0000F931F934B015C012091EC023091ED02B7
:100DF0004091EE025091EF021AEFE12EF12C00E04B
:100E000010E00E94C900882341F18092EC02909288
:100E1000ED02A092EE02B092EF020E9483058823B9
:100E2000E1F00E94A3066093F5027093F6028093AE
:100E3000F7029093F80287E492E00E94FC00609130
:100E4000F5027091F6028091F7029091F8020E94EB
:100E500050018EEB92E00E94FC001F910F91FF90D9
:100E6000EF90BF90AF909F908F9008951F920F9238
:100E70000FB60F9211248F939F93AF93BF938091DE
:100E80001B0390911C03A0911D03B0911E030196BA
:100E9000A11DB11D80931B0390931C03A0931D0300
:100EA000B0931E03BF91AF919F918F910F900FBE92
:100EB0000F901F9018951F920F920FB60F9211244A
:100EC0008F939F93AF93BF93EF93FF938091B9005C
:100ED000E82FE87F8E2F90E0FC01E056F109E9351C
:100EE000F10570F5EC5CFF4F0C94650885EC809380
:100EF000BC0029C08091BB0080931A0385EC8093CD
:100F0000BC0021C0E0911A038DECE89F812D1124D3
:100F1000869586958695880F982F990F990F890F3A
:100F2000E81BF0E0E05FFC4F80818093BB00809184
:100F30001A038F5F80931A0385EC8093BC0003C073
:100F400085EC8093BC00FF91EF91BF91AF919F9191
:100F50008F910F900FBE0F901F901895CF93DF9336
:100F6000CDB7DEB72C970FB6F894DEBF0FBECDBF5E
:100F7000F8940E9489010E94E9000E94E0000E940A
:100F8000D7010E94730278942FEF81EE94E02150F4
:100F900080409040E1F700C0000085E592E00E94AB
:100FA000FC000E946506882329F083E792E00E94F6
:100FB000FC0004C087E992E00E94FC0080E00E94EF
:100FC000ED010E94AC006B017C010E947001A70141
:100FD0009601682FCE0101960E949F010E94780120
:100FE000A7019601682FCE0107960E949F0110E08D
:100FF0000E94AC006B017C010E947001A701960168
:10100000682FCE0101960E94A7018823B1F0898143
:10101000882399F001E0111100E0802F0E947F01E8
:10102000111106C081EC92E00E94FC00102F05C057
:1010300087ED92E00E94FC00102F0E947801A7012A
:101040009601682FCE0107960E94A701882339F0E8
:101050008F81882321F0C701B6010E940A02C701CF
:10106000B6010E942402C701B6010E948A05C70189
:10107000B6010E942C05C701B6010E94EA06812F25
:101080000E942C06B5CFA1E21A2EAA1BBB1BFD01A4
:101090000DC0AA1FBB1FEE1FFF1FA217B307E40757
:1010A000F50720F0A21BB30BE40BF50B661F771FAF
:1010B000881F991F1A9469F760957095809590958F
:1010C0009B01AC01BD01CF010895EE0FFF1F0590FC
:1010D000F491E02D0994A29FB001B39FC001A39F9A
:1010E000700D811D1124911DB29F700D811D112461
:1010F000911D08950E946B08A59F900DB49F900DBF
:0E110000A49F800D911D11240895F894FFCF37
:10110E000150726F78696D696461642064657465FD
:10111E0063746164613A20736572766F2070726FCA
:10112E006772616D61646F2E0D0A00536572766F82
:10113E00206120393020677261646F732E0D0A00B2
:10114E00536572766F207265677265736F206120CA
:10115E003020677261646F732E0D0A00526F6A6FD2
:10116E002064657465637461646F3A20737465708E
:10117E007065722070726F6772616D61646F2E0D93
:10118E000A00417A756C2064657465637461646FDE
:10119E003A20737465707065722070726F67726139
:1011AE006D61646F2E0D0A00537465707065722048
:1011BE006C6C65676F206120393020677261646FD7
:1011CE00732E0D0A00537465707065722072656718
:1011DE007265736F20616C206F726967656E2E0D7C
:1011EE000A005374657070657220696E6963696177
:1011FE00206D6F76696D69656E746F2064652073FE
:10120E00616C6964612E0D0A0053746570706572AD
:10121E0020696E69636961207265746F726E6F2EDC
:10122E000D0A00436F6C6F7220433D0020523D004B
:10123E0020473D0020423D00415044532D39393660
:10124E00302049443A2000485837313120627275B7
:10125E00746F3A20000D0A53697374656D612065D1
:10126E0073636C61766F20696E69636961646F2E5A
:10127E000D0A00415044532D3939363020696E69BC
:10128E00636961646F20636F7272656374616D650B
:10129E006E74652E0D0A004552524F523A206E6FF3
:1012AE00207365207075646F20696E696369617261
:1012BE0020656C20415044532D393936302E0D0A9D
:1012CE00004D6F746F7220444320656E63656E64CB
:1012DE0069646F2E0D0A004D6F746F7220444320A7
:0C12EE006170616761646F2E0D0A0000E2
:00000001FF
