:100000000C9434000C9451000C9451000C94510049
:100010000C9451000C9451000C9451000C9451001C
:100020000C9451000C9451000C9451000C949F01BD
:100030000C9451000C9451000C9451000C945100FC
:100040000C9451000C9451000C9451000C945100EC
:100050000C9451000C9451000C9451000C945100DC
:100060000C9451000C94510011241FBECFEFD8E026
:10007000DEBFCDBF11E0A0E0B1E0EEE6F4E002C0EB
:1000800005900D92A230B107D9F721E0A2E0B1E0CE
:1000900001C01D92AC30B207E1F70E9483010C94BD
:1000A00035020C94000087B1887F87B988B18760DA
:1000B00088B984B18F6384B985B1807C85B908958E
:1000C00010928000E1E8F0E088E0808389E698E122
:1000D000909389008093880082E080936F008081F4
:1000E000846080830895CF93DF9300D0CDB7DEB7CF
:1000F00096B1892F847092FD14C01A82198206C0AD
:1001000029813A812F5F3F4F3A83298329813A81A0
:10011000283B3B40A8F3329905C0329BFECF81E0DB
:1001200001C080E00F900F90DF91CF91089595B1BD
:10013000907F892B85B90895882331F0813031F083
:10014000823031F484E0089581E0089582E00895DA
:1001500088E0089580910B01882319F180910201B4
:1001600081111FC0309B02C091E001C090E08091DE
:1001700001019817A1F0809105018F5F809305011F
:10018000853078F09093010110920501911109C01A
:10019000809107010E949C008093070108951092AE
:1001A0000501089580910B01882319F180910201C6
:1001B00081111FC0319B02C091E001C090E080918D
:1001C00000019817A1F0809104018F5F80930401D2
:1001D000853078F09093000110920401911109C0CC
:1001E000809106010E949C00809306010895109260
:1001F00004010895F89410920B0181E080930A01A4
:1002000095E090930901109208011092020110925A
:100210000701109206018093010180930001109262
:100220000501109204011092030185B1807C85B90B
:100230007894809109010E94F6010895809102014D
:10024000813029F40E94F6018FE185B9089582304A
:1002500021F40E94F6018FE285B908958091020190
:10026000811117C080910701883041F481E08093AB
:10027000020110920B010E941E0108958091060157
:10028000883039F482E08093020110920B010E94C1
:100290001E010895CF93DF9300D0CDB7DEB78091D4
:1002A0000201882319F00E941E0128C085B18F7CAD
:1002B00085B98091030181110BC0809107010E94D3
:1002C000970085B1806185B981E08093030109C001
:1002D000809106010E94970085B1806285B91092D5
:1002E00003011A82198205C089819A8101969A8335
:1002F000898389819A81883C9105B0F30F900F9092
:10030000DF91CF9108950E9453000E94EB010E945B
:10031000F2010E94600078940E947300882331F0FB
:1003200080910A01811102C00E94FA000E94AA0075
:100330000E94D2000E942E010E944A01EDCF1F921E
:100340000F920FB60F9211242F933F934F935F9309
:100350006F937F938F939F93AF93BF93EF93FF938D
:1003600080910A01882309F1809108018F5F8093B1
:100370000801809108018A30C0F010920801809134
:100380000901882349F08091090181508093090176
:10039000809109010E94F60180910901811105C037
:1003A00010920A0181E080930B01FF91EF91BF91C0
:1003B000AF919F918F917F916F915F914F913F91FD
:1003C0002F910F900FBE0F901F9018959BB19470B6
:1003D000892B8BB908958AB18B6F8AB98BB18470E0
:1003E0008BB908958BB184708BB90895811104C0C5
:1003F0008BE70E94E6010895813021F489E00E9494
:10040000E6010895823021F483EB0E94E60108950D
:10041000833021F48BE90E94E6010895843021F4B1
:1004200089EC0E94E6010895853021F48AED0E944E
:10043000E6010895863021F48AEF0E94E6010895CE
:10044000873021F48BE00E94E6010895883021F482
:100450008BEF0E94E6010895893021F48BED0E9414
:0E046000E60108950E94F2010895F894FFCF7E
:02046E0001018A
:00000001FF
