:100000000C9434000C9446000C9446000C9446006A
:100010000C9446000C9446000C9446000C94460048
:100020000C9446000C9446000C9446000C94C800B6
:100030000C9446000C9446000C9446000C94460028
:100040000C9446000C9446000C9446000C94460018
:100050000C9446000C9446000C9446000C94460008
:100060000C9446000C94460011241FBECFEFD8E03C
:10007000DEBFCDBF21E0A0E0B1E001C01D92A630FF
:10008000B207E1F70E94B1000C945E010C940000ED
:1000900087B1887F87B988B1876088B90895109241
:1000A0008000E1E8F0E088E0808389E698E19093C1
:1000B00089008093880082E080936F008081846053
:1000C00080830895CF93DF9300D0CDB7DEB7482F5C
:1000D00086B18423B1F41A82198206C029813A813B
:1000E0002F5F3F4F3A83298329813A81283B3B4048
:1000F000A8F396B1942331F496B19423E9F381E007
:1001000001C080E00F900F90DF91CF910895809112
:1001100005018823A1F081E00E946200882329F074
:10012000809101018F5F8093010182E00E94620053
:10013000882329F0809100018F5F8093000108954A
:10014000F8941092050181E08093040185E080938A
:100150000301109202017894809103010E941F0113
:1001600008950E9448000E9414010E941B010E94F1
:100170004F00789484E00E946200882331F08091DF
:100180000401811102C00E94A0000E948700F2CFEA
:100190001F920F920FB60F9211242F933F934F93FC
:1001A0005F936F937F938F939F93AF93BF93EF93DF
:1001B000FF9380910401882309F1809102018F5FF0
:1001C00080930201809102018A30C0F010920201F6
:1001D00080910301882349F080910301815080932D
:1001E0000301809103010E941F018091030181118D
:1001F00005C01092040181E080930501FF91EF9109
:10020000BF91AF919F918F917F916F915F914F912E
:100210003F912F910F900FBE0F901F9018959BB19B
:100220009470892B8BB908958AB18B6F8AB98BB181
:1002300084708BB908958BB184708BB90895811146
:1002400004C08BE70E940F010895813021F489E0FA
:100250000E940F010895823021F483EB0E940F0168
:100260000895833021F48BE90E940F0108958430B2
:1002700021F489EC0E940F010895853021F48AED64
:100280000E940F010895863021F48AEF0E940F0129
:100290000895873021F48BE00E940F010895883083
:1002A00021F48BEF0E940F010895893021F48BED2A
:1002B0000E940F0108950E941B010895F894FFCF3A
:00000001FF
