:100000000C9434000C9446000C9446000C9446006A
:100010000C9446000C9446000C9446000C94460048
:100020000C9446000C9446000C9446000C94460038
:100030000C9446000C9446000C946E020C944600FE
:100040000C9446000C9446000C9446000C94460018
:100050000C9446000C9446000C9446000C94460008
:100060000C9493020C94460011241FBECFEFD8E0ED
:10007000DEBFCDBF21E0A0E0B1E001C01D92A731FD
:10008000B207E1F70E94DC020C945B030C940000C1
:100090002FB7F894609113017091140180911501AC
:1000A000909116012FBF0895DC01CB01821B930BA9
:1000B000A40BB50B80959095A095B0958827B7FDBA
:1000C00083959927AA27BB270895EF92FF920F9354
:1000D0001F93DC01CB01821B930BA40BB50B21E01A
:1000E0008E159F05A007B10708F420E0822F1F910D
:1000F0000F91FF90EF90089582E084BD93E095BD4D
:1001000099EF97BD80936E00089589B18695869585
:1001100091E08927817008958AB18B7F8AB98BB16C
:1001200084608BB98AB1806C8AB98BB18F738BB9BB
:1001300084B1816084B985B18E7F85B987B18F7CA8
:1001400087B988B1806388B90895FC0160836183B1
:1001500022833383448355830895DF92EF92FF9285
:100160000F931F93CF93DF93FC01A62F81818617F6
:1001700029F0618322833383448355838081A817C8
:1001800099F0CA01B901DA2EEF012281338144814D
:1001900055811EE1E12EF12C00E010E00E94650087
:1001A000882319F0D88201C080E0DF91CF911F91A0
:1001B0000F91FF90EF90DF90089584B1826084B931
:1001C00082E8809380008AE1809381008FE39CE93C
:1001D000909387008093860080ED97E0909389004C
:1001E000809388000895882369F08BB180688BB96B
:1001F0008BB18F7B8BB985B1816085B981E08093AC
:10020000050108958BB18F738BB985B18E7F85B948
:10021000109205010895CF92DF92EF92FF926B0149
:100220007C0180E00E94F30088EBC80E8BE0D81EB2
:10023000E11CF11CC0920601D0920701E092080176
:10024000F0920901FF90EF90DF90CF9008952091F8
:10025000050121110FC02091060130910701409145
:100260000801509109010E945400882319F081E08F
:100270000E94F30008958F929F92AF92BF92CF9207
:10028000DF92EF92FF926B017C0180910F01882336
:10029000A1F080910B0190910C01A0910D01B09102
:1002A0000E0188579C4EAF4FBF4F80930B01909328
:1002B0000C01A0930D01B0930E01809105018111F5
:1002C00010C08090060190900701A0900801B090A6
:1002D0000901A5019401C701B6010E9454008823B9
:1002E00079F0D701C60188579C4EAF4FBF4F80931E
:1002F000060190930701A0930801B09309010EC075
:1003000088E8880E83E1981EA11CB11C809206012A
:1003100090920701A0920801B092090180E00E942A
:10032000F30081E08093040188E8C80E83E1D81EC1
:10033000E11CF11CC0920001D0920101E092020187
:10034000F0920301FF90EF90DF90CF90BF90AF90BD
:100350009F908F900895CF92DF92EF92FF926B0162
:100360007C0180911101853A31F410921101C7018D
:10037000B6010E943B0180910401882379F020910D
:100380000001309101014091020150910301C70128
:10039000B6010E945400811110920401FF90EF9069
:1003A000DF90CF900895CF93C82F853B08F0C4EB22
:1003B0002C2F30E0A8EEB3E00E944C0324EB30E099
:1003C00040E050E00E942A0328513C4F220F331F87
:1003D0003093890020938800CA3549F480910A013E
:1003E0008A3529F0809110018F5F80931001C093AE
:1003F0000A01CF91089520910F01211111C021E030
:1004000020930F01DC01CB0188519C4FAF4FBF4FB0
:1004100080930B0190930C01A0930D01B0930E01FA
:100420000895CF92DF92EF92FF92CF936B017C0100
:10043000C0910F01C13029F520910B0130910C01C1
:1004400040910D0150910E010E9454008823C9F083
:10045000C701B6010E940B018AE50E94D30182E028
:1004600080930F0188EEC80E83E0D81EE11CF11CBA
:10047000C0920B01D0920C01E0920D01F0920E019E
:1004800015C0C23099F420910B0130910C014091BC
:100490000D0150910E01C701B6010E94540088233E
:1004A00029F080E00E94D30110920F01CF91FF90BC
:1004B000EF90DF90CF90089583E08093B9008CE0B7
:1004C0008093B80084E28093BA0085EC8093BC00EE
:1004D0000895809110018093120108951F920F9248
:1004E0000FB60F9211248F939F93AF93BF93809178
:1004F000130190911401A0911501B091160101967C
:10050000A11DB11D8093130190931401A0931501B7
:10051000B0931601BF91AF919F918F910F900FBE35
:100520000F901F9018951F920F920FB60F921124E3
:100530008F938091B900887F8038E9F058F488362D
:10054000B1F018F4803699F02EC0803781F08837EA
:1005500071F029C0883AD9F028F4803961F0803AE6
:1005600091F021C0803CD9F0883CC9F01CC085ECDA
:100570008093BC001BC08091BB008093110185EC6F
:100580008093BC0013C085EC8093BC000FC08091A9
:1005900012018093BB0085EC8093BC0007C085EC02
:1005A0008093BC0003C085EC8093BC008F910F90BA
:1005B0000FBE0F901F901895CF93DF9300D000D0FF
:1005C00000D0CDB7DEB7F8940E948C000E947C006A
:1005D0000E94DD000E945C02789480E00E94D301BA
:1005E00081E00E94F3000E9448006B017C010E94A0
:1005F0008500A7019601682FCE0101960E94A500F3
:100600000E9448006B017C010E94AB0180910401B3
:10061000882319F00E946902F3CF0E948500A70188
:100620009601682FCE0101960E94AD00882339F013
:100630008981882321F0C701B6010E94FB01C7010F
:10064000B6010E941102C701B6010E9427010E9453
:100650006902D6CFA1E21A2EAA1BBB1BFD010DC059
:10066000AA1FBB1FEE1FFF1FA217B307E407F50762
:1006700020F0A21BB30BE40BF50B661F771F881F3E
:10068000991F1A9469F760957095809590959B01D4
:10069000AC01BD01CF010895A29FB001B39FC0017D
:1006A000A39F700D811D1124911DB29F700D811D9E
:0A06B0001124911D0895F894FFCF66
:00000001FF
