:100000000C9434000C9446000C9446000C9446006A
:100010000C9446000C9446000C9446000C94460048
:100020000C9446000C9446000C9446000C94460038
:100030000C9446000C9446000C947E010C944600EF
:100040000C9446000C9446000C9446000C94460018
:100050000C9446000C9446000C9446000C94460008
:100060000C94A3010C94460011241FBECFEFD8E0DE
:10007000DEBFCDBF21E0A0E0B1E001C01D92AC30F9
:10008000B207E1F70E94DE010C944D020C940000CF
:100090002FB7F894609108017091090180910A01CD
:1000A00090910B012FBF0895DC01CB01821B930BB4
:1000B000A40BB50B80959095A095B0958827B7FDBA
:1000C00083959927AA27BB270895EF92FF920F9354
:1000D0001F93DC01CB01821B930BA40BB50B21E01A
:1000E0008E159F05A007B10708F420E0822F1F910D
:1000F0000F91FF90EF90089582E084BD93E095BD4D
:1001000099EF97BD80936E00089589B18695869585
:1001100091E08927817008958AB18B7F8AB98BB16C
:1001200084608BB987B18F7C87B988B1806388B9C7
:100130000895FC0160836183228333834483558364
:100140000895DF92EF92FF920F931F93CF93DF9367
:10015000FC01A62F8181861729F0618322833383D6
:10016000448355838081A81799F0CA01B901DA2E1A
:10017000EF0122813381448155811EE1E12EF12C72
:1001800000E010E00E946500882319F0D88201C0C9
:1001900080E0DF91CF911F910F91FF90EF90DF9062
:1001A000089584B1826084B982E8809380008AE1F6
:1001B000809381008FE39CE9909387008093860071
:1001C00080ED97E090938900809388000895CF9305
:1001D000C82F853B08F0C4EB2C2F30E0A8EEB3E02D
:1001E0000E943E0224EB30E040E050E00E941C02FE
:1001F00028513C4F220F331F3093890020938800F1
:10020000CA3549F4809100018A3529F080910601B0
:100210008F5F80930601C0930001CF9108952091D4
:100220000501211111C021E020930501DC01CB0162
:1002300088519C4FAF4FBF4F8093010190930201B3
:10024000A0930301B09304010895CF92DF92EF923F
:10025000FF92CF936B017C01C0910501C13009F57C
:10026000209101013091020140910301509104015C
:100270000E9454008823A9F08AE50E94E70082E0EA
:100280008093050188EEC80E83E0D81EE11CF11CA6
:10029000C0920101D0920201E0920301F0920401A8
:1002A00015C0C23099F420910101309102014091B2
:1002B000030150910401C701B6010E945400882334
:1002C00029F080E00E94E70010920501CF91FF9095
:1002D000EF90DF90CF90089583E08093B9008CE099
:1002E0008093B80084E28093BA0085EC8093BC00D0
:1002F0000895809106018093070108951F920F923F
:100300000FB60F9211248F939F93AF93BF93809159
:10031000080190910901A0910A01B0910B01019689
:10032000A11DB11D8093080190930901A0930A01BA
:10033000B0930B01BF91AF919F918F910F900FBE22
:100340000F901F9018951F920F920FB60F921124C5
:100350008F938091B900887F883799F038F4883678
:1003600081F0803771F0803601F50BC0883A89F052
:1003700018F4803A51F019C0803C99F0883C89F01B
:1003800014C085EC8093BC0013C085EC8093BC0046
:100390000FC0809107018093BB0085EC8093BC0067
:1003A00007C085EC8093BC0003C085EC8093BC0043
:1003B0008F910F900FBE0F901F901895CF93DF93E2
:1003C00000D000D000D0CDB7DEB7F8940E948C00EA
:1003D0000E947C000E94D1000E946C01789480E011
:1003E0000E94E7000E9448006B017C010E9485008A
:1003F000A7019601682FCE0101960E9499000E94E4
:1004000048006B017C010E948500A7019601682FBE
:10041000CE0101960E94A100882339F089818823AA
:1004200021F0C701B6010E940F01C701B6010E9469
:1004300025010E947901E3CFA1E21A2EAA1BBB1B62
:10044000FD010DC0AA1FBB1FEE1FFF1FA217B307A0
:10045000E407F50720F0A21BB30BE40BF50B661FB6
:10046000771F881F991F1A9469F76095709580957A
:1004700090959B01AC01BD01CF010895A29FB001F1
:10048000B39FC001A39F700D811D1124911DB29FC8
:0E049000700D811D1124911D0895F894FFCF69
:00000001FF
