:100000000C9434000C9446000C9446000C9446006A
:100010000C9446000C9446000C9446000C94460048
:100020000C9446000C9446000C9446000C94460038
:100030000C9446000C9446000C94DB020C94460091
:100040000C9446000C9446000C9446000C94460018
:100050000C9446000C9446000C9446000C94460008
:100060000C9400030C94460011241FBECFEFD8E07F
:10007000DEBFCDBF21E0A0E0B1E001C01D92A831FC
:10008000B207E1F70E9486020C947A030C940000F8
:100090002FB7F894609114017091150180911601A9
:1000A000909117012FBF0895DC01CB01821B930BA8
:1000B000A40BB50B80959095A095B0958827B7FDBA
:1000C00083959927AA27BB270895EF92FF920F9354
:1000D0001F93DC01CB01821B930BA40BB50B21E01A
:1000E0008E159F05A007B10708F420E0822F1F910D
:1000F0000F91FF90EF90089582E084BD93E095BD4D
:1001000099EF97BD80936E00089583B182FB882795
:1001100080F90895FC0160836183228333834483E3
:1001200055830895DF92EF92FF920F931F93CF9321
:10013000DF93FC01A62F8181861729F0618322833A
:100140003383448355838081A81799F0CA01B9018C
:10015000DA2EEF0122813381448155811EE1E12EA7
:10016000F12C00E010E00E946500882319F0D8828D
:1001700001C080E0DF91CF911F910F91FF90EF9030
:10018000DF90089584B18B7F84B985B1846085B98F
:100190008AB1806C8AB98BB18F738BB984B181605D
:1001A00084B985B18E7F85B987B18F7C87B988B1D5
:1001B000806388B9089584B1826084B982E88093AD
:1001C00080008AE1809381008FE39CE9909387000F
:1001D0008093860080ED97E090938900809388005B
:1001E0000895CF93C82F853B08F0C4EB2C2F30E047
:1001F000A8EEB3E00E946B0324EB30E040E050E057
:100200000E94490328513C4F220F331F309389002D
:1002100020938800C43B49F480910B01843B29F072
:10022000809111018F5F80931101C0930B01CF91D9
:10023000089520911001211111C021E02093100197
:10024000DC01CB0184529A4FAF4FBF4F80930C011A
:1002500090930D01A0930E01B0930F010895882390
:1002600069F08BB180688BB98BB18F7B8BB985B10D
:10027000816085B981E08093060108958BB18F7309
:100280008BB985B18E7F85B9109206010895CF9202
:10029000DF92EF92FF926B017C0180E00E942F01C0
:1002A00088EBC80E8BE0D81EE11CF11CC092070140
:1002B000D0920801E0920901F0920A01FF90EF90BC
:1002C000DF90CF900895CF92DF92EF92FF92CF937D
:1002D0006B017C01C0911001C13029F520910C0106
:1002E00030910D0140910E0150910F010E94540078
:1002F0008823C9F0C701B6010E94470184EB0E9420
:10030000F10082E08093100188EEC80E83E0D81ED1
:10031000E11CF11CC0920C01D0920D01E0920E0183
:10032000F0920F0115C0C23099F420910C01309168
:100330000D0140910E0150910F01C701B6010E94BD
:100340005400882329F080E00E94F10010921001EF
:10035000CF91FF90EF90DF90CF900895209106010C
:1003600021110FC02091070130910801409109012E
:1003700050910A010E945400882319F081E00E94E4
:100380002F0108958F929F92AF92BF92CF92DF92EA
:10039000EF92FF926B017C01809110018823A1F004
:1003A00080910C0190910D01A0910E01B0910F016F
:1003B00088579C4EAF4FBF4F80930C0190930D0117
:1003C000A0930E01B0930F0180910601811110C01E
:1003D0008090070190900801A0900901B0900A0157
:1003E000A5019401C701B6010E945400882379F049
:1003F000D701C60188579C4EAF4FBF4F809307016E
:1004000090930801A0930901B0930A010EC088E8F7
:10041000880E83E1981EA11CB11C80920701909266
:100420000801A0920901B0920A0180E00E942F0108
:1004300081E08093050188E8C80E83E1D81EE11CA5
:10044000F11CC0920101D0920201E0920301F092EE
:100450000401FF90EF90DF90CF90BF90AF909F90FE
:100460008F900895CF92DF92EF92FF926B017C0103
:1004700080911201853A39F410921201C701B60138
:100480000E94C20119C0803B49F41092120181E020
:100490008093000180E00E942F010EC0813B61F437
:1004A0001092120110920001C0920701D09208012F
:1004B000E0920901F0920A0180910501882379F008
:1004C00020910101309102014091030150910401FA
:1004D000C701B6010E945400811110920501FF90DE
:1004E000EF90DF90CF90089583E08093B9008CE087
:1004F0008093B80084E28093BA0085EC8093BC00BE
:10050000089580911101809313010895CF93DF9393
:1005100000D000D000D0CDB7DEB7F8940E94C20062
:100520000E947C000E94DB000E947402789480E0AC
:100530000E94F10081E00E942F010E9448006B019F
:100540007C010E948500A7019601682FCE010196CB
:100550000E948A000E9448006B017C010E943202C6
:1005600080910501882319F00E948102F3CF8091C8
:100570000001882319F00E948102ECCF0E948500BF
:10058000A7019601682FCE0101960E949200882350
:1005900039F08981882321F0C701B6010E94190131
:1005A000C701B6010E946301C701B6010E94AE01F6
:1005B0000E948102CFCF1F920F920FB60F9211248B
:1005C0008F939F93AF93BF938091140190911501E6
:1005D000A0911601B09117010196A11DB11D809344
:1005E000140190931501A0931601B0931701BF91C8
:1005F000AF919F918F910F900FBE0F901F90189504
:100600001F920F920FB60F9211248F938091B90011
:10061000887F8038E9F058F48836B1F018F48036D5
:1006200099F02EC0803781F0883771F029C0883A60
:10063000D9F028F4803961F0803A91F021C0803CF3
:10064000D9F0883CC9F01CC085EC8093BC001BC06D
:100650008091BB008093120185EC8093BC0013C095
:1006600085EC8093BC000FC0809113018093BB0088
:1006700085EC8093BC0007C085EC8093BC0003C070
:1006800085EC8093BC008F910F900FBE0F901F9050
:100690001895A1E21A2EAA1BBB1BFD010DC0AA1FB3
:1006A000BB1FEE1FFF1FA217B307E407F50720F0DB
:1006B000A21BB30BE40BF50B661F771F881F991F56
:1006C0001A9469F760957095809590959B01AC019F
:1006D000BD01CF010895A29FB001B39FC001A39FA8
:1006E000700D811D1124911DB29F700D811D11246B
:0806F000911D0895F894FFCF5D
:00000001FF
