:100000000C9434000C9449000C9449000C94490061
:100010000C9449000C9449000C9449000C9449003C
:100020000C9449000C9449000C9449000C9449002C
:100030000C9449000C9449000C9449000C9449001C
:100040000C9449000C9449000C9449000C9449000C
:100050000C9449000C9449000C9449000C944900FC
:100060000C9449000C94490011241FBECFEFD8E036
:10007000DEBFCDBF11E0A0E0B1E0E6E3FAE002C0F0
:1000800005900D92A432B107D9F70E94B2000C94EA
:1000900019050C94000080E480937C0087E880932D
:1000A0007A000895ECE7F0E09081907F8F70892BC3
:1000B00080648083EAE7F0E08081806480838091BF
:1000C0007A0086FDFCCF80917800909179000895A8
:1000D000CF92DF92EF92FF92CF93DF93C62FD72F6D
:1000E0009C01A4EFB1E00E9412022FEF33E040E048
:1000F00050E00E94F00169017A01F901F695E79557
:10010000F695E7959F01ABE7B4E10E941202AC01BE
:100110005695479524E6249FC001259F900D1124F4
:10012000C81AD90ADD24DF92CF9255275F934F93E7
:1001300080E091E09F938F931F9285E08F93DF93F0
:10014000CF930E9421028DB79EB70A960FB6F894FE
:100150009EBF0FBE8DBFDF91CF91FF90EF90DF90DC
:10016000CF900895CF93DF93CDB7DEB7E1970FB669
:10017000F894DEBF0FBECDBF0E9485010E944B00E8
:1001800084E00E9452007C0185E00E9452006C01D4
:1001900086E00E9452005C018E010D5D1F4FB80188
:1001A000C7010E9468007E0128E2E20EF11CB7013F
:1001B000C6010E9468006E018DE2C80ED11CB60116
:1001C000C5010E94680081E1E3E1F1E0DE011196E2
:1001D00001900D928A95E1F7DF92CF92FF92EF9214
:1001E0001F930F9388E091E09F938F931F9281E17B
:1001F0008F93015111091F930F930E94210260E018
:1002000080E00E94E901CE0101960E94DC0160E0DD
:1002100081E00E94E901C8010E94DC019FEF23EC0C
:1002200089E0915020408040E1F700C000000FB607
:10023000F894DEBF0FBECDBFA3CF80FF04C098B13E
:10024000926098B903C098B19D7F98B981FF04C0AE
:1002500098B1916098B903C098B19E7F98B982FF18
:1002600004C095B1906295B903C095B19F7D95B9D1
:1002700083FF04C095B1906195B903C095B19F7E8D
:1002800095B984FF04C095B1986095B903C095B144
:10029000977F95B985FF04C095B1946095B903C067
:1002A00095B19B7F95B986FF04C095B1926095B9D1
:1002B00003C095B19D7F95B9882324F485B18160F1
:1002C00085B9089585B18E7F85B9089588B1886014
:1002D00088B985E08A95F1F7000088B1877F88B9F1
:1002E0008FE891E00197F1F700C00000089598B100
:1002F0009B7F98B90E941D010E9466018FE39FE1D8
:100300000197F1F700C00000089587B1846087B9B4
:1003100087B1886087B987B1826087B987B181600A
:1003200087B984B1806284B984B1806184B984B1B1
:10033000886084B984B1846084B984B1826084B9EE
:1003400084B1816084B98FE59AEE0197F1F700C01E
:10035000000088E30E9477018FE891E00197F1F7B0
:1003600000C000008CE00E9477018FE891E00197C7
:10037000F1F700C0000086E00E9477018FE891E06D
:100380000197F1F700C0000081E00E9477018FE340
:100390009FE10197F1F700C00000089598B19460C3
:1003A00098B90E941D010E9466018FE39FE10197A9
:1003B000F1F700C000000895CF93DF93EC0103C074
:1003C0000E94CE01219688818111FACFDF91CF91D1
:1003D0000895811180E4860F80680E947701089556
:1003E000A1E21A2EAA1BBB1BFD010DC0AA1FBB1F39
:1003F000EE1FFF1FA217B307E407F50720F0A21BAB
:10040000B30BE40BF50B661F771F881F991F1A9417
:1004100069F760957095809590959B01AC01BD0141
:10042000CF010895A29FB001B39FC001A39F700D9B
:10043000811D1124911DB29F700D811D1124911DEC
:100440000895AEE0B0E0E7E2F2E00C94F0040D892C
:100450001E898F89988D26E02C831A83098397FF44
:1004600002C080E090E801979E838D83AE01455ED7
:100470005F4F698D7A8DCE0101960E9451024D81A8
:100480005E8157FD0AC02F813885421753070CF44F
:100490009A01F801E20FF31F10822E96E4E00C940B
:1004A0000C05ABE0B0E0E7E5F2E00C94E2046C018F
:1004B0007B018A01FC0117821682838181FFCCC1F6
:1004C000CE0101963C01F6019381F70193FD8591E0
:1004D00093FF81917F01882309F4BAC1853239F4F1
:1004E00093FD859193FF81917F01853229F4B601B7
:1004F00090E00E944804E7CF912C212C312CFFE1A1
:10050000F315D8F08B3279F038F4803279F08332F9
:10051000A1F4232D20611DC08D3261F0803369F478
:10052000232D216016C0832D8260382EE32DE460D8
:100530003E2E2AC0F32DF8601DC037FC2DC020EDE3
:10054000280F2A3040F08E32B9F436FC81C1232DB9
:100550002064322E19C036FE06C08AE0989E200D17
:100560001124922E11C0EAE02E9E200D1124222E7D
:10057000F32DF0623F2E08C08C3621F4832D806865
:10058000382E02C0883641F4F70193FD859193FF20
:1005900081917F018111B3CF982F9F7D9554933026
:1005A00028F40C5F1F4F9FE399830DC0833631F011
:1005B000833771F0833509F059C021C0F80180817B
:1005C00089830E5F1F4F88248394912C530113C09D
:1005D0002801F2E04F0E511CF801A080B18036FED8
:1005E00003C0692D70E002C06FEF7FEFC5010E946C
:1005F0003D044C018201F32DFF773F2E16C02801E8
:1006000022E0420E511CF801A080B18036FE03C0EA
:10061000692D70E002C06FEF7FEFC5010E943204C8
:100620004C01F32DF0683F2E820133FC1BC0822D5C
:1006300090E088169906B0F4B60180E290E00E943E
:1006400048042A94F4CFF50137FC859137FE819157
:100650005F01B60190E00E94480421102A9421E035
:10066000821A91088114910471F7E8C0843611F060
:10067000893641F5F80137FE07C0608171818281BA
:1006800093810C5F1F4F08C060817181072E000CA1
:10069000880B990B0E5F1F4FF32DFF763F2E97FFB0
:1006A00009C090958095709561957F4F8F4F9F4FB2
:1006B000F0683F2E2AE030E0A3010E948404882ED7
:1006C000861845C0853731F4232D2F7EB22E2AE0BF
:1006D00030E025C0932D997FB92E8F36C1F018F4E4
:1006E000883579F0B5C0803719F0883721F0B0C06F
:1006F000E92FE061BE2EB4FE0DC0FB2DF460BF2ECD
:1007000009C034FE0AC0292F2660B22E06C028E098
:1007100030E005C020E130E002C020E132E0F80125
:10072000B7FE07C060817181828193810C5F1F4F8A
:1007300006C06081718180E090E00E5F1F4FA301D1
:100740000E948404882E8618FB2DFF773F2E36FEEC
:100750000DC0232D2E7FA22E891458F434FE0BC019
:1007600032FC09C0832D8E7EA82E05C0B82CA32C88
:1007700003C0B82C01C0B92CA4FE0FC0FE01E80DC7
:10078000F11D8081803321F49A2D997EA92E09C014
:10079000A2FE06C0B394B39404C08A2D867809F0F3
:1007A000B394A3FC11C0A0FE06C0B21488F4280CB8
:1007B000922C9B180EC0B21460F4B60180E290E057
:1007C0000E944804B394F7CFB21418F42B1802C057
:1007D000982C212CA4FE10C0B60180E390E00E946A
:1007E0004804A2FE17C0A1FC03C088E790E002C045
:1007F00088E590E0B6010CC08A2D867859F0A1FEFC
:1008000002C08BE201C080E2A7FC8DE2B60190E05D
:100810000E944804891438F4B60180E390E00E94F5
:1008200048049A94F7CF8A94F301E80DF11D808172
:10083000B60190E00E9448048110F5CF222009F40F
:1008400042CEB60180E290E00E9448042A94F6CF9E
:10085000F6018681978102C08FEF9FEF2B96E2E130
:100860000C94FE04FC010590615070400110D8F713
:10087000809590958E0F9F1F0895FC0161507040E8
:1008800001900110D8F7809590958E0F9F1F0895C5
:100890000F931F93CF93DF93FB01238121FD03C0AF
:1008A0008FEF9FEF2CC022FF16C046815781248115
:1008B00035814217530744F4A081B1819D012F5F18
:1008C0003F4F318320838C93268137812F5F3F4FA9
:1008D0003783268314C08B01EC01FB010084F18572
:1008E000E02D0995892BE1F6D80116968D919C9102
:1008F0001797019617969C938E931697CE01DF91CA
:10090000CF911F910F910895FA01AA27283051F134
:10091000203181F1E8946F936E7F6E5F7F4F8F4F30
:100920009F4FAF4FB1E03ED0B4E03CD0670F781F8F
:10093000891F9A1FA11D680F791F8A1F911DA11D74
:100940006A0F711D811D911DA11D20D009F46894AD
:100950003F912AE0269F11243019305D3193DEF655
:10096000CF010895462F4770405D4193B3E00FD00B
:10097000C9F7F6CF462F4F70405D4A3318F0495DF6
:1009800031FD4052419302D0A9F7EACFB4E0A695D9
:100990009795879577956795BA95C9F700976105FB
:1009A000710508959B01AC010A2E06945795479551
:1009B00037952795BA95C9F7620F731F841F951F46
:1009C000A01D08952F923F924F925F926F927F9257
:1009D0008F929F92AF92BF92CF92DF92EF92FF924F
:1009E0000F931F93CF93DF93CDB7DEB7CA1BDB0BFB
:1009F0000FB6F894DEBF0FBECDBF09942A883988A0
:100A000048885F846E847D848C849B84AA84B984A6
:100A1000C884DF80EE80FD800C811B81AA81B981B2
:100A2000CE0FD11D0FB6F894DEBF0FBECDBFED01C6
:060A30000895F894FFCFC9
:100A360025752E253032750025732020257320203C
:100A460025730053312020202053322020202053AC
:040A56003320200029
:00000001FF
