:100000000C9434000C9446000C9446000C941B0194
:100010000C9446000C9446000C9446000C94460048
:100020000C9446000C9446000C9446000C94460038
:100030000C9446000C9446000C9446000C94460028
:100040000C9446000C94FC000C9446000C94460062
:100050000C9446000C9446000C9446000C94460008
:100060000C9446000C94460011241FBECFEFD8E03C
:10007000DEBFCDBF21E0A0E0B1E001C01D92A43001
:10008000B207E1F70E9498000C942E010C94000036
:100090008AB18C6F8AB984B1836084B9089580FF76
:1000A00004C095B1926095B903C095B19D7F95B993
:1000B00081FF04C09BB194609BB903C09BB19B7F3F
:1000C0009BB982FF04C09BB198609BB903C09BB1F0
:1000D000977F9BB983FF04C09BB190619BB903C01C
:1000E0009BB19F7E9BB984FF04C09BB190629BB97A
:1000F00003C09BB19F7D9BB985FF04C09BB19064F9
:100100009BB903C09BB19F7B9BB986FF04C09BB189
:1001100090689BB903C09BB19F779BB9882324F457
:1001200085B1816085B9089585B18E7F85B90895BF
:100130000E94B4000E94D8000E94480084E00E94FF
:10014000BB00C82F85E00E94BB00682F8C2F0E9447
:10015000F1000E94F9000E944F008FE39CE9019793
:10016000F1F700C00000EACF80E680937C0087E8CA
:1001700080937A000895ECE7F0E09081907F8F7093
:10018000892B80668083EAE7F0E080818064808349
:1001900080917A0086FDFCCFEAE7F0E08081806400
:1001A000808380917A0086FDFCCF8091790008954C
:1001B00084B1837D84B984B1806184B980EC8CBDC5
:1001C000E8E6F0E0808181608083EBE6F0E080810A
:1001D0008460808310920001809101018EBD78942B
:1001E00008959FB7F894E1E0F1E0808361839FBFB9
:1001F00008958091030108951F920F920FB60F92F8
:1002000011248F938091000181110AC08EB58093D3
:10021000030181E080930001809102018EBD05C041
:1002200010920001809101018EBD8F910F900FBE41
:100230000F901F9018951F920F920FB60F921124D6
:100240008F931A9905C010920001809101018EBD13
:100250008F910F900FBE0F901F901895F894FFCFBD
:00000001FF
