S00A000056312E7372656393
S11300000C9434000C9449000C9449000C9449005D
S11300100C9449000C9449000C9449000C94490038
S11300200C9449000C9449000C9449000C94490028
S11300300C9449000C9449000C9449000C94490018
S11300400C9449000C9449000C9449000C94490008
S11300500C9449000C9449000C9449000C944900F8
S11300600C9449000C94490011241FBECFEFD8E032
S1130070DEBFCDBF11E0A0E0B1E0ECEEF3E002C0E2
S113008005900D92A032B107D9F70E9488010C9413
S1130090F4010C94000095B1907E80FF02C020E131
S11300A001C020E0922B81FF02C028E001C020E0C3
S11300B0382F922B282F2470922B83FF02C042E00A
S11300C001C040E084FB222720F9942B922B95B9A0
S11300D09BB19F7185FF02C020E801C020E0922BF4
S11300E08074892B332314F490E201C090E0892BAF
S11300F08BB9089584E480937C0087E880937A0028
S11301000895EAE7F0E080818064808380917A003A
S113011086FDFCCF8091780090917900089587B195
S11301208F7D87B988B1806288B908958BB1846066
S11301308BB985E08A95F1F700008BB18B7F8BB981
S11301408FE891E00197F1F700C0000008959BB19A
S11301509F7E9BB99BB1977F9BB90E944B000E94E5
S113016096008FE39FE10197F1F700C00000089526
S11301708111605C862F80680E94A70008959BB15E
S113018090619BB99BB1977F9BB90E944B000E94E1
S1130190960087EC90E00197F1F700C00000089505
S11301A0CF93DF93EC0103C00E94BF0021968881A6
S11301B08111FACFDF91CF9108951F93CF93DF93ED
S11301C000D000D01F92CDB7DEB7AC01892B91F5DA
S11301D080E30E94BF003FC09A01ADECBCEC0E94DA
S11301E0E5019695879596958795969587959C01B3
S11301F0220F331F880F991F880F991F880F991F8B
S1130200820F931F9A01281B390BC901805DE1E01D
S1130210F0E0EC0FFD1FE10FF11D80839A010E94B5
S1130220E501AC01569547955695479556954795E2
S11302301F5F01C010E04115510571F60AC011504D
S1130240E1E0F0E0EC0FFD1FE10FF11D80810E9461
S1130250BF001111F4CF0F900F900F900F900F90DB
S1130260DF91CF911F910895CF93DF93EC0160E06C
S113027081E00E94B80080E091E00E94D00060E03C
S113028081E00E94B800CE010E94DD00DF91CF9191
S1130290089584B18F6184B98AB1806E8AB98AB1B4
S11302A080618AB98AB188608AB98AB184608AB95E
S11302B02FEF89EF90E0215080409040E1F700C09B
S11302C0000088E30E94A7008CE00E94A70081E060
S11302D00E94A7008FE39FE10197F1F700C000009F
S11302E086E00E94A700089596B1892F807295FD3B
S11302F00DC02FE738E391E0215030409040E1F702
S113030000C00000359903C081E0089580E008959D
S11303100E9449010E947A000E948F0060E080E000
S11303200E94B80081E191E00E94D00080E090E05A
S11303300E943401C1E000E010E00E9474018823AF
S113034091F080E090E00E943401359BFECF2FE7CE
S113035088E391E0215080409040E1F700C0000024
S1130360C1E000E010E00E948100883E23E0920793
S113037068F0CC2359F00F3087E2180710F40F5FB0
S11303801F4FC8010E943401C0E015C0853191059A
S113039068F4CC2359F00F3097E2190710F40F5F7B
S11303A01F4FC8010E943401C0E005C04597833D3A
S11303B0934008F4C1E08FEF92E527E0815090402C
S11303C02040E1F700C00000B8CFA29FB001B39F66
S11303D0C001A39F700D811D1124911DB29F700D4A
S10F03E0811D1124911D0895F894FFCF95
S11303EC20202020202020202020202020202020FD
S11303FC0063616E74696461642063616A61730093
S9030000FC
