:100000000C9434000C9451000C9451000C94510049
:100010000C9451000C9451000C9451000C9451001C
:100020000C9451000C9451000C9451000C9451000C
:100030000C9451000C9451000C9451000C945100FC
:100040000C9451000C9451000C9451000C945100EC
:100050000C9451000C9451000C9451000C945100DC
:100060000C9451000C94510011241FBECFEFD8E026
:10007000DEBFCDBF11E0A0E0B1E0E8EEF0E102C0EC
:1000800005900D92AE38B107D9F721E0AEE8B1E0A6
:1000900001C01D92A13AB207E1F70E94A4040C949A
:1000A00072080C9400008AB188608AB98BB18860AC
:1000B0008BB908958AB1846F8AB984B18F6184B98C
:1000C0008BB18B708BB985B1807E85B9089580FF27
:1000D00004C095B1906195B903C095B19F7E95B963
:1000E00081FF04C095B1986095B903C095B1977F21
:1000F00095B982FF04C095B1946095B903C095B1DC
:100100009B7F95B983FF04C095B1926095B903C0F8
:1001100095B19D7F95B984FF04C095B1916095B963
:1001200003C095B19E7F95B985FF04C09BB19068CF
:100130009BB903C09BB19F779BB986FF04C09BB15D
:1001400090649BB903C09BB19F7B9BB9882324F427
:100150008BB180628BB908958BB18F7D8BB9089577
:1001600087B18F7C87B988B1806388B983E0809339
:10017000B9008CE08093B80084E08093BC000895BF
:100180008091B900887F089584E98093BC00089528
:100190009BB1977F9BB9EFE9F1E03197F1F700C090
:1001A000000090E018C0282F30E0092E02C03695DC
:1001B00027950A94E2F720FF04C02BB128602BB9E1
:1001C00003C02BB1277F2BB9EFE9F1E03197F1F7AD
:1001D00000C000009F5F983030F38BB188608BB90E
:1001E0008FE991E00197F1F700C000000895CF93E7
:1001F000DF93EC0103C00E94C80021968881811121
:10020000FACFDF91CF9108958BB184608BB985E0EF
:100210008A95F1F700008BB18B7F8BB987EC90E06A
:100220000197F1F700C000000895662321F09BB10B
:1002300090619BB903C09BB19F7E9BB90E946700F0
:100240000E940401089561E00E94150108950F9332
:100250001F93CF938C01C0E003C00E942301CF5FA6
:10026000F801EC0FF11D8081882339F0C031A8F32B
:1002700004C080E20E942301CF5FC031D0F3CF9150
:100280001F910F91089560E00E9415018FE39FE197
:100290000197F1F700C000000895611102C090E0DD
:1002A00001C090E4890F80680E944301089581E0B5
:1002B0000E9443018FE39FE10197F1F700C0000026
:1002C00008958BB18F7E8BB98BB18B7F8BB92FEF5C
:1002D00080E792E0215080409040E1F700C00000AC
:1002E00080E30E9467000E9404018FE19EE4019771
:1002F000F1F700C0000080E30E9467000E94040143
:100300008FE99FE00197F1F700C0000080E30E94B1
:1003100067000E9404018FE99FE00197F1F700C098
:10032000000088E30E9443018CE00E94430186E0C4
:100330000E9443010E945701089540E45DE063E09C
:1003400070E008C085E08A95F1F70000415051093E
:10035000610971098091BC0088232CF04115510579
:100360006105710579F781E0452B462B472B09F490
:1003700080E00895CF93C82F84EA8093BC000E9448
:100380009D018823F9F00E94C000883011F080316F
:10039000C1F4C093BB0084E88093BC000E949D011F
:1003A000882381F00E94C000982FC0FD05C081E025
:1003B000983141F080E006C081E0903419F080E08F
:1003C00001C080E0CF9108958093BB0084E88093C2
:1003D000BC000E949D01982F882331F00E94C0002C
:1003E00091E0883209F090E0892F0895CF93DF9350
:1003F000D82F84E20E94BA01C82F811103C00E9445
:10040000C4000BC08D2F0E94E401C82F811103C0CE
:100410000E94C40002C00E94C4008C2FDF91CF91C3
:1004200008950F931F93CF93DF938C01D62F6623EC
:1004300021F084EC8093BC0003C084E88093BC006E
:100440000E949D01C82F882399F0DD2329F00E9486
:10045000C000803551F404C00E94C000883539F4D2
:100460008091BB00F801808303C0C0E001C0C0E000
:100470008C2FDF91CF911F910F910895FF920F93D1
:100480001F93CF93DF93CDB7DEB728970FB6F894BD
:10049000DEBF0FBECDBF86E20E94BA01082F8111D8
:1004A00003C00E94C40064C080E00E94E401082FE1
:1004B000811103C00E94C4005BC087E20E94BA01A0
:1004C000082F81111AC00E94C40052C0812F90E0F1
:1004D00061E0173008F060E021E030E02C0F3D1FB4
:1004E000820F931F0E941102F82E811104C00E94F6
:1004F000C4000F2D3DC01F5F01C010E0183030F365
:100500000E94C400898180939A018A818093990115
:100510008B8190E0A0E0B0E0782F66275527442734
:100520009C81892F90E0A0E0B0E0DC01992788272A
:10053000842B952BA62BB72B4D8150E060E070E00B
:10054000762F652F542F4427842B952BA62BB72B62
:100550002E81822B8093950190939601A093970111
:10056000B09398018F818093940188858093920144
:10057000802F28960FB6F894DEBF0FBECDBFDF9157
:10058000CF911F910F91FF900895EF92FF921F93CB
:10059000CF93DF9300D0CDB7DEB77C0180E90E9416
:1005A000BA01182F811103C00E94C4002DC080E041
:1005B0000E94E401182F811103C00E94C40024C0CE
:1005C00081E90E94BA01182F811103C00E94C40062
:1005D0001BC061E0CE0101960E941102182F81110B
:1005E00003C00E94C40010C060E0CE0102960E94C9
:1005F0001102182F811103C00E94C40005C00E947F
:10060000C4008981F7018083812F0F900F90DF91C3
:10061000CF911F91FF90EF900895EF92FF920F936B
:100620001F93CF93DF931F92CDB7DEB77C0110E00D
:1006300026C085E20E94BA01811109C00E94C4004F
:100640008FE19EE40197F1F700C0000017C060E061
:10065000CE0101960E941102082F811109C00E944B
:10066000C400EFE1FEE43197F1F700C0000006C0DE
:100670000E94C4008981F701808304C01F5F13308A
:10068000C0F200E0802F0F90DF91CF911F910F916A
:10069000FF90EF9008950F931F93CF93DF93CDB703
:1006A000DEB7A0970FB6F894DEBF0FBECDBF60E0F7
:1006B00080E00E944D0180E091E00E94270180913E
:1006C0009301882309F458C0809195019091960177
:1006D000A0919701B0919801873027E29207A10578
:1006E000B10570F4BC01CD016E5C7F4F8F4F9F4F01
:1006F00024E630E040E050E00E944905F90102C0E4
:10070000E7EEF3E09F01ADECBCEC0E946B05AC01A1
:10071000569547955695479556954795CA01880F22
:10072000991F440F551F440F551F440F551F480F65
:10073000591FCF01841B950BAC010E946B05969548
:10074000879596958795969587955F934F939F93F9
:100750008F9380E191E09F938F931F9285E08F9319
:10076000CE0142969F938F930E947A050FB6F8941C
:10077000DEBF0FBECDBF09C085E0E8E2F1E0DE01DB
:10078000529601900D928A95E1F780919E018823FF
:10079000C9F08091A0018F9380919F018F9386E192
:1007A00091E09F938F931F9286E08F93CE0147969F
:1007B0009F938F930E947A050FB6F894DEBF0FBE09
:1007C000CDBF09C086E0E7E2F1E0DE015796019077
:1007D0000D928A95E1F780919B018823D9F0809151
:1007E0009C01282F082E000C330B3F938F938AE136
:1007F00091E09F938F931F9284E08F93CE014D964B
:100800009F938F930E947A050FB6F894DEBF0FBEB8
:10081000CDBF08C08DE29DE29E8F8D8F8DE290E06E
:1008200098A38F8FCE014D969F938F9306979F939A
:100830008F9305979F938F938EE191E09F938F9372
:100840001F9281E18F938E010F5F1F4F1F930F93B4
:100850000E947A0561E080E00E944D01C8010E947B
:1008600027010FB6F894DEBF0FBECDBFA0960FB61E
:10087000F894DEBF0FBECDBFDF91CF911F910F91D6
:1008800008950F931F93CF93DF93CDB7DEB7C05773
:10089000D1090FB6F894DEBF0FBECDBFA091940171
:1008A000F0919A01E0919901409195015091960142
:1008B000609197017091980130919E0120919D0166
:1008C00080919B01882331F080919C01082E000CBF
:1008D000990B02C081E89FEF1F92AF931F92FF9385
:1008E0001F92EF937F936F935F934F931F923F936A
:1008F0001F922F939F938F938091A0018F9380914C
:100900009F018F938DE291E09F938F931F9280E7D9
:100910008F938E010F5F1F4F1F930F930E947A05D5
:10092000C8010E94F7000FB6F894DEBF0FBECDBF1E
:10093000C059DF4F0FB6F894DEBF0FBECDBFDF91B9
:10094000CF911F910F910895CF93DF9300D0CDB732
:10095000DEB70E945A000E9461010E94B0000E940E
:10096000530060E080E00E944D0180E091E00E9431
:10097000270161E080E00E944D018FE791E00E9435
:1009800027012FEF89E698E1215080409040E1F760
:1009900000C0000010E0CE0101960E94C50288232D
:1009A000C1F0898180939C0191E090939B018035F7
:1009B0005CF090919D01911107C085EA0E94F601BB
:1009C00081E080939D0107C080352CF410929D0139
:1009D00002C010929B01CE0102960E940D03882353
:1009E00051F08A8190E09093A00180939F0181E073
:1009F00080939E0102C010929E010E943E028823B5
:100A000021F081E08093930104C010929301109231
:100A1000920180919201882339F011110BC080EB73
:100A20000E94F60111E006C0112321F081EB0E9423
:100A3000F60110E00E944B0380918E0190918F018E
:100A4000A0919001B091910188539F4FAF4FBF4F3C
:100A500080938E0190938F01A0939001B0939101A8
:100A6000883E9340A105B10550F010928E0110927E
:100A70008F0110929001109291010E9441048FEF1A
:100A800093EC29E0815090402040E1F700C0000045
:100A900082CFA1E21A2EAA1BBB1BFD010DC0AA1F0B
:100AA000BB1FEE1FFF1FA217B307E407F50720F0D7
:100AB000A21BB30BE40BF50B661F771F881F991F52
:100AC0001A9469F760957095809590959B01AC019B
:100AD000BD01CF010895A29FB001B39FC001A39FA4
:100AE000700D811D1124911DB29F700D811D112467
:100AF000911D0895AEE0B0E0E0E8F5E00C944908FF
:100B00000D891E898F89988D26E02C831A8309838D
:100B100097FF02C080E090E801979E838D83AE012D
:100B2000455E5F4F698D7A8DCE0101960E94AA05C0
:100B30004D815E8157FD0AC02F81388542175307CA
:100B40000CF49A01F801E20FF31F10822E96E4E0F4
:100B50000C946508ABE0B0E0E0EBF5E00C943B08EA
:100B60006C017B018A01FC0117821682838181FF5F
:100B7000CCC1CE0101963C01F6019381F70193FDB2
:100B8000859193FF81917F01882309F4BAC1853251
:100B900039F493FD859193FF81917F01853229F48A
:100BA000B60190E00E94A107E7CF912C212C312CB7
:100BB000FFE1F315D8F08B3279F038F4803279F018
:100BC0008332A1F4232D20611DC08D3261F080336A
:100BD00069F4232D216016C0832D8260382EE32D09
:100BE000E4603E2E2AC0F32DF8601DC037FC2DC0F6
:100BF00020ED280F2A3040F08E32B9F436FC81C146
:100C0000232D2064322E19C036FE06C08AE0989E3D
:100C1000200D1124922E11C0EAE02E9E200D1124E9
:100C2000222EF32DF0623F2E08C08C3621F4832D46
:100C30008068382E02C0883641F4F70193FD859113
:100C400093FF81917F018111B3CF982F9F7D9554A0
:100C5000933028F40C5F1F4F9FE399830DC08336B8
:100C600031F0833771F0833509F059C021C0F801A4
:100C7000808189830E5F1F4F88248394912C5301B8
:100C800013C02801F2E04F0E511CF801A080B18082
:100C900036FE03C0692D70E002C06FEF7FEFC50123
:100CA0000E9496074C018201F32DFF773F2E16C05C
:100CB000280122E0420E511CF801A080B18036FECE
:100CC00003C0692D70E002C06FEF7FEFC5010E9485
:100CD0008B074C01F32DF0683F2E820133FC1BC0C3
:100CE000822D90E088169906B0F4B60180E290E07B
:100CF0000E94A1072A94F4CFF50137FC859137FEB5
:100D000081915F01B60190E00E94A10721102A9411
:100D100021E0821A91088114910471F7E8C08436A9
:100D200011F0893641F5F80137FE07C06081718105
:100D3000828193810C5F1F4F08C060817181072EF3
:100D4000000C880B990B0E5F1F4FF32DFF763F2E83
:100D500097FF09C090958095709561957F4F8F4F53
:100D60009F4FF0683F2E2AE030E0A3010E94DD078C
:100D7000882E861845C0853731F4232D2F7EB22E5C
:100D80002AE030E025C0932D997FB92E8F36C1F02F
:100D900018F4883579F0B5C0803719F0883721F01C
:100DA000B0C0E92FE061BE2EB4FE0DC0FB2DF46093
:100DB000BF2E09C034FE0AC0292F2660B22E06C0FD
:100DC00028E030E005C020E130E002C020E132E060
:100DD000F801B7FE07C060817181828193810C5F49
:100DE0001F4F06C06081718180E090E00E5F1F4F51
:100DF000A3010E94DD07882E8618FB2DFF773F2E6A
:100E000036FE0DC0232D2E7FA22E891458F434FEF9
:100E10000BC032FC09C0832D8E7EA82E05C0B82CD5
:100E2000A32C03C0B82C01C0B92CA4FE0FC0FE0136
:100E3000E80DF11D8081803321F49A2D997EA92E31
:100E400009C0A2FE06C0B394B39404C08A2D86786C
:100E500009F0B394A3FC11C0A0FE06C0B21488F43C
:100E6000280C922C9B180EC0B21460F4B60180E2DC
:100E700090E00E94A107B394F7CFB21418F42B1896
:100E800002C0982C212CA4FE10C0B60180E390E093
:100E90000E94A107A2FE17C0A1FC03C088E790E052
:100EA00002C088E590E0B6010CC08A2D867859F022
:100EB000A1FE02C08BE201C080E2A7FC8DE2B60178
:100EC00090E00E94A107891438F4B60180E390E015
:100ED0000E94A1079A94F7CF8A94F301E80DF11DBF
:100EE0008081B60190E00E94A1078110F5CF2220F9
:100EF00009F442CEB60180E290E00E94A1072A9454
:100F0000F6CFF6018681978102C08FEF9FEF2B9677
:100F1000E2E10C945708FC0105906150704001100B
:100F2000D8F7809590958E0F9F1F0895FC01615012
:100F3000704001900110D8F7809590958E0F9F1FFB
:100F400008950F931F93CF93DF93FB01238121FD1E
:100F500003C08FEF9FEF2CC022FF16C04681578140
:100F6000248135814217530744F4A081B1819D014A
:100F70002F5F3F4F318320838C93268137812F5FF2
:100F80003F4F3783268314C08B01EC01FB010084A3
:100F9000F185E02D0995892BE1F6D80116968D9102
:100FA0009C911797019617969C938E931697CE0156
:100FB000DF91CF911F910F910895FA01AA27283050
:100FC00051F1203181F1E8946F936E7F6E5F7F4F16
:100FD0008F4F9F4FAF4FB1E03ED0B4E03CD0670F92
:100FE000781F891F9A1FA11D680F791F8A1F911DE5
:100FF000A11D6A0F711D811D911DA11D20D009F435
:1010000068943F912AE0269F11243019305D319376
:10101000DEF6CF010895462F4770405D4193B3E05F
:101020000FD0C9F7F6CF462F4F70405D4A3318F006
:10103000495D31FD4052419302D0A9F7EACFB4E0B7
:10104000A6959795879577956795BA95C9F700976F
:101050006105710508959B01AC010A2E0694579510
:10106000479537952795BA95C9F7620F731F841F67
:10107000951FA01D08952F923F924F925F926F92FD
:101080007F928F929F92AF92BF92CF92DF92EF9218
:10109000FF920F931F93CF93DF93CDB7DEB7CA1B99
:1010A000DB0B0FB6F894DEBF0FBECDBF09942A88C4
:1010B000398848885F846E847D848C849B84AA846C
:1010C000B984C884DF80EE80FD800C811B81AA81F9
:1010D000B981CE0FD11D0FB6F894DEBF0FBECDBFC4
:0810E000ED010895F894FFCF23
:1010E800544445542043414A41532054454D5000EF
:1010F80025752E2575002535750025336400257363
:10110800202573202573002D2D2D2D2D00626F783D
:1011180065733D25752C74656D705F633D25642C82
:10112800616C61726D3D25752C6932633D25752CA6
:101138006465746563745F6D733D256C752C737499
:1011480065707065723D25752C6379636C65733DB8
:1011580025752C627574746F6E3D25750D0A002D0A
:0E1168002D2D2D202D2D2D2D2D202D2D2D004A
:00000001FF
