:100000000C9434000C9451000C9451000C94510049
:100010000C9451000C9451000C9451000C9451001C
:100020000C9451000C9451000C9451000C9451000C
:100030000C9451000C9451000C9451000C945100FC
:100040000C9451000C9451000C9451000C945100EC
:100050000C9451000C9451000C9451000C945100DC
:100060000C9451000C94510011241FBECFEFD8E026
:10007000DEBFCDBF11E0A0E0B1E0EEE2FBE002C0E8
:1000800005900D92AE31B107D9F721E0AEE1B1E0B4
:1000900001C01D92A132B207E1F70E945B020C94ED
:1000A00095050C9400008AB18C6F8AB984B18F6178
:1000B00084B98BB183708BB985B1807E85B9089581
:1000C00080FF04C095B1906195B903C095B19F7E42
:1000D00095B981FF04C095B1986095B903C095B1F9
:1000E000977F95B982FF04C095B1946095B903C01C
:1000F00095B19B7F95B983FF04C095B1926095B986
:1001000003C095B19D7F95B984FF04C095B19160FE
:1001100095B903C095B19E7F95B985FF04C09BB189
:1001200090689BB903C09BB19F779BB986FF04C0C1
:100130009BB190649BB903C09BB19F7B9BB9882303
:1001400024F48BB180628BB908958BB18F7D8BB90C
:10015000089587B18F7C87B988B1806388B983E0BF
:100160008093B9008CE08093B80084E08093BC0059
:1001700008958091B900887F089584E98093BC0038
:1001800008958BB184608BB985E08A95F1F7000002
:100190008BB18B7F8BB987EC90E00197F1F700C0B2
:1001A00000000895662321F09BB190619BB903C0C4
:1001B0009BB19F7E9BB99BB1977F9BB90E946000CA
:1001C0000E94C100089561E00E94D20008950F933B
:1001D0001F93CF938C01C0E003C00E94E300CF5F68
:1001E000F801EC0FF11D8081882339F0C031A8F3AC
:1001F00004C080E20E94E300CF5FC031D0F3CF9112
:100200001F910F91089560E00E94D2008FE39FE15B
:100210000197F1F700C000000895611102C090E05D
:1002200001C090E4890F80680E940301089581E075
:100230000E9403018FE39FE10197F1F700C00000E6
:1002400008958BB18F7E8BB98BB1877F8BB98BB1C2
:100250008B7F8BB92FEF80E792E021508040904058
:10026000E1F700C0000080E30E9460000E94C1002E
:100270008FE19EE40197F1F700C0000080E30E9447
:1002800060000E94C1008FE99FE00197F1F700C074
:10029000000080E30E9460000E94C1008FE99FE09F
:1002A0000197F1F700C0000088E30E9403018CE091
:1002B0000E94030186E00E9403010E941701089535
:1002C00040E45DE063E070E008C085E08A95F1F706
:1002D000000041505109610971098091BC008823D7
:1002E0002CF0411551056105710579F781E0452B29
:1002F000462B472B09F480E00895CF93C82F84EA5A
:100300008093BC000E9460018823F9F00E94B9002C
:10031000883011F08031C1F4C093BB0084E8809331
:10032000BC000E946001882381F00E94B900982FD0
:10033000C0FD05C081E0983141F080E006C081E059
:10034000903419F080E001C080E0CF9108950F93C0
:100350001F93CF93DF938C01D62F662321F084EC7B
:100360008093BC0003C084E88093BC000E946001BD
:10037000C82F882399F0DD2329F00E94B900803529
:1003800051F404C00E94B900883539F48091BB0053
:10039000F801808303C0C0E001C0C0E08C2FDF9172
:1003A000CF911F910F910895EF92FF920F931F939A
:1003B000CF93DF931F92CDB7DEB77C0110E026C04C
:1003C00085E20E947D01811109C00E94BD008FE17C
:1003D0009EE40197F1F700C0000017C060E0CE0175
:1003E00001960E94A701082F811109C00E94BD003B
:1003F000EFE1FEE43197F1F700C0000006C00E9473
:10040000BD008981F701808304C01F5F1330C0F2F3
:1004100000E0802F0F90DF91CF911F910F91FF90FF
:10042000EF900895CF93DF93CDB7DEB761970FB606
:10043000F894DEBF0FBECDBF60E080E00E940D01EA
:1004400080E091E00E94E70061E080E00E940D0101
:1004500080911E018823C9F0809120018F938091A3
:100460001F018F938FE091E09F938F931F9281E103
:100470008F93CE0101969F938F930E949D020FB69A
:10048000F894DEBF0FBECDBF09C08CE0E2E1F1E021
:10049000DE01119601900D928A95E1F7CE01019649
:1004A0000E94E70061960FB6F894DEBF0FBECDBF85
:1004B000DF91CF910895CF93DF931F92CDB7DEB731
:1004C0000E9453000E9421010E94A90060E080E088
:1004D0000E940D0180E091E00E94E70061E080E071
:1004E0000E940D0182E191E00E94E7002FEF89E672
:1004F00098E1215080409040E1F700C00000CE011B
:1005000001960E94D401882351F0898190E0909354
:10051000200180931F0181E080931E0102C0109290
:100520001E010E9412022FEF83EC99E021508040BF
:100530009040E1F700C00000E2CFAEE0B0E0E3EAB7
:10054000F2E00C946C050D891E898F89988D26E048
:100550002C831A83098397FF02C080E090E80197FB
:100560009E838D83AE01455E5F4F698D7A8DCE018E
:1005700001960E94CD024D815E8157FD0AC02F81F8
:100580003885421753070CF49A01F801E20FF31F64
:1005900010822E96E4E00C948805ABE0B0E0E3ED29
:1005A000F2E00C945E056C017B018A01FC0117826C
:1005B0001682838181FFCCC1CE0101963C01F601F8
:1005C0009381F70193FD859193FF81917F018823AA
:1005D00009F4BAC1853239F493FD859193FF819175
:1005E0007F01853229F4B60190E00E94C404E7CF70
:1005F000912C212C312CFFE1F315D8F08B3279F0BE
:1006000038F4803279F08332A1F4232D20611DC0AB
:100610008D3261F0803369F4232D216016C0832D63
:100620008260382EE32DE4603E2E2AC0F32DF86060
:100630001DC037FC2DC020ED280F2A3040F08E322F
:10064000B9F436FC81C1232D2064322E19C036FE48
:1006500006C08AE0989E200D1124922E11C0EAE077
:100660002E9E200D1124222EF32DF0623F2E08C065
:100670008C3621F4832D8068382E02C0883641F4F0
:10068000F70193FD859193FF81917F018111B3CF94
:10069000982F9F7D9554933028F40C5F1F4F9FE354
:1006A00099830DC0833631F0833771F0833509F0BB
:1006B00059C021C0F801808189830E5F1F4F8824B3
:1006C0008394912C530113C02801F2E04F0E511C6A
:1006D000F801A080B18036FE03C0692D70E002C031
:1006E0006FEF7FEFC5010E94B9044C018201F32D29
:1006F000FF773F2E16C0280122E0420E511CF80160
:10070000A080B18036FE03C0692D70E002C06FEF9B
:100710007FEFC5010E94AE044C01F32DF0683F2E1F
:10072000820133FC1BC0822D90E088169906B0F43C
:10073000B60180E290E00E94C4042A94F4CFF5014F
:1007400037FC859137FE81915F01B60190E00E94F0
:10075000C40421102A9421E0821A91088114910482
:1007600071F7E8C0843611F0893641F5F80137FE9B
:1007700007C060817181828193810C5F1F4F08C027
:1007800060817181072E000C880B990B0E5F1F4F43
:10079000F32DFF763F2E97FF09C0909580957095B9
:1007A00061957F4F8F4F9F4FF0683F2E2AE030E0DA
:1007B000A3010E940005882E861845C0853731F4B4
:1007C000232D2F7EB22E2AE030E025C0932D997F75
:1007D000B92E8F36C1F018F4883579F0B5C080375E
:1007E00019F0883721F0B0C0E92FE061BE2EB4FEC9
:1007F0000DC0FB2DF460BF2E09C034FE0AC0292FA6
:100800002660B22E06C028E030E005C020E130E0CE
:1008100002C020E132E0F801B7FE07C060817181BB
:10082000828193810C5F1F4F06C06081718180E0DF
:1008300090E00E5F1F4FA3010E940005882E8618CE
:10084000FB2DFF773F2E36FE0DC0232D2E7FA22ECF
:10085000891458F434FE0BC032FC09C0832D8E7EFF
:10086000A82E05C0B82CA32C03C0B82C01C0B92CED
:10087000A4FE0FC0FE01E80DF11D8081803321F43C
:100880009A2D997EA92E09C0A2FE06C0B394B394F6
:1008900004C08A2D867809F0B394A3FC11C0A0FE91
:1008A00006C0B21488F4280C922C9B180EC0B21407
:1008B00060F4B60180E290E00E94C404B394F7CFE4
:1008C000B21418F42B1802C0982C212CA4FE10C0CE
:1008D000B60180E390E00E94C404A2FE17C0A1FC10
:1008E00003C088E790E002C088E590E0B6010CC044
:1008F0008A2D867859F0A1FE02C08BE201C080E209
:10090000A7FC8DE2B60190E00E94C404891438F47B
:10091000B60180E390E00E94C4049A94F7CF8A94D1
:10092000F301E80DF11D8081B60190E00E94C4043E
:100930008110F5CF222009F442CEB60180E290E08A
:100940000E94C4042A94F6CFF6018681978102C0E2
:100950008FEF9FEF2B96E2E10C947A05FC01059056
:10096000615070400110D8F7809590958E0F9F1FB1
:100970000895FC016150704001900110D8F78095F6
:1009800090958E0F9F1F08950F931F93CF93DF9322
:10099000FB01238121FD03C08FEF9FEF2CC022FFBD
:1009A00016C046815781248135814217530744F48C
:1009B000A081B1819D012F5F3F4F318320838C93B4
:1009C000268137812F5F3F4F3783268314C08B01E9
:1009D000EC01FB010084F185E02D0995892BE1F6FE
:1009E000D80116968D919C911797019617969C9316
:1009F0008E931697CE01DF91CF911F910F9108959D
:100A0000FA01AA27283051F1203181F1E8946F933F
:100A10006E7F6E5F7F4F8F4F9F4FAF4FB1E03ED0E5
:100A2000B4E03CD0670F781F891F9A1FA11D680F83
:100A3000791F8A1F911DA11D6A0F711D811D911DB6
:100A4000A11D20D009F468943F912AE0269F11242B
:100A50003019305D3193DEF6CF010895462F47708F
:100A6000405D4193B3E00FD0C9F7F6CF462F4F70EA
:100A7000405D4A3318F0495D31FD4052419302D048
:100A8000A9F7EACFB4E0A6959795879577956795EE
:100A9000BA95C9F700976105710508959B01AC01EE
:100AA0000A2E06945795479537952795BA95C9F715
:100AB000620F731F841F951FA01D08952F923F92F0
:100AC0004F925F926F927F928F929F92AF92BF925E
:100AD000CF92DF92EF92FF920F931F93CF93DF930A
:100AE000CDB7DEB7CA1BDB0B0FB6F894DEBF0FBE67
:100AF000CDBF09942A88398848885F846E847D84B4
:100B00008C849B84AA84B984C884DF80EE80FD80B5
:100B10000C811B81AA81B981CE0FD11D0FB6F8942B
:0E0B2000DEBF0FBECDBFED010895F894FFCFEC
:100B2E0043616E74696461642063616A6173002558
:0E0B3E0075004932432073696E2041434B001D
:00000001FF
